{
  "contractName": "NFT",
  "abi": [
    {
      "inputs": [],
      "stateMutability": "nonpayable",
      "type": "constructor"
    },
    {
      "anonymous": false,
      "inputs": [
        {
          "indexed": true,
          "internalType": "address",
          "name": "owner",
          "type": "address"
        },
        {
          "indexed": true,
          "internalType": "address",
          "name": "approved",
          "type": "address"
        },
        {
          "indexed": true,
          "internalType": "uint256",
          "name": "tokenId",
          "type": "uint256"
        }
      ],
      "name": "Approval",
      "type": "event"
    },
    {
      "anonymous": false,
      "inputs": [
        {
          "indexed": true,
          "internalType": "address",
          "name": "owner",
          "type": "address"
        },
        {
          "indexed": true,
          "internalType": "address",
          "name": "operator",
          "type": "address"
        },
        {
          "indexed": false,
          "internalType": "bool",
          "name": "approved",
          "type": "bool"
        }
      ],
      "name": "ApprovalForAll",
      "type": "event"
    },
    {
      "anonymous": false,
      "inputs": [
        {
          "indexed": true,
          "internalType": "address",
          "name": "from",
          "type": "address"
        },
        {
          "indexed": true,
          "internalType": "address",
          "name": "to",
          "type": "address"
        },
        {
          "indexed": true,
          "internalType": "uint256",
          "name": "tokenId",
          "type": "uint256"
        }
      ],
      "name": "Transfer",
      "type": "event"
    },
    {
      "inputs": [],
      "name": "admin",
      "outputs": [
        {
          "internalType": "address",
          "name": "",
          "type": "address"
        }
      ],
      "stateMutability": "view",
      "type": "function",
      "constant": true
    },
    {
      "inputs": [
        {
          "internalType": "address",
          "name": "to",
          "type": "address"
        },
        {
          "internalType": "uint256",
          "name": "tokenId",
          "type": "uint256"
        }
      ],
      "name": "approve",
      "outputs": [],
      "stateMutability": "nonpayable",
      "type": "function"
    },
    {
      "inputs": [
        {
          "internalType": "address",
          "name": "owner",
          "type": "address"
        }
      ],
      "name": "balanceOf",
      "outputs": [
        {
          "internalType": "uint256",
          "name": "",
          "type": "uint256"
        }
      ],
      "stateMutability": "view",
      "type": "function",
      "constant": true
    },
    {
      "inputs": [
        {
          "internalType": "uint256",
          "name": "tokenId",
          "type": "uint256"
        }
      ],
      "name": "getApproved",
      "outputs": [
        {
          "internalType": "address",
          "name": "",
          "type": "address"
        }
      ],
      "stateMutability": "view",
      "type": "function",
      "constant": true
    },
    {
      "inputs": [
        {
          "internalType": "address",
          "name": "owner",
          "type": "address"
        },
        {
          "internalType": "address",
          "name": "operator",
          "type": "address"
        }
      ],
      "name": "isApprovedForAll",
      "outputs": [
        {
          "internalType": "bool",
          "name": "",
          "type": "bool"
        }
      ],
      "stateMutability": "view",
      "type": "function",
      "constant": true
    },
    {
      "inputs": [],
      "name": "name",
      "outputs": [
        {
          "internalType": "string",
          "name": "",
          "type": "string"
        }
      ],
      "stateMutability": "view",
      "type": "function",
      "constant": true
    },
    {
      "inputs": [],
      "name": "nextTokenId",
      "outputs": [
        {
          "internalType": "uint256",
          "name": "",
          "type": "uint256"
        }
      ],
      "stateMutability": "view",
      "type": "function",
      "constant": true
    },
    {
      "inputs": [
        {
          "internalType": "address",
          "name": "",
          "type": "address"
        },
        {
          "internalType": "uint256",
          "name": "",
          "type": "uint256"
        }
      ],
      "name": "nfts",
      "outputs": [
        {
          "internalType": "uint256",
          "name": "id",
          "type": "uint256"
        },
        {
          "internalType": "string",
          "name": "name",
          "type": "string"
        },
        {
          "internalType": "string",
          "name": "imageUrl",
          "type": "string"
        },
        {
          "internalType": "uint256",
          "name": "date",
          "type": "uint256"
        },
        {
          "internalType": "address",
          "name": "owner",
          "type": "address"
        },
        {
          "internalType": "uint256",
          "name": "price",
          "type": "uint256"
        }
      ],
      "stateMutability": "view",
      "type": "function",
      "constant": true
    },
    {
      "inputs": [
        {
          "internalType": "uint256",
          "name": "",
          "type": "uint256"
        }
      ],
      "name": "nftsMarket",
      "outputs": [
        {
          "internalType": "uint256",
          "name": "id",
          "type": "uint256"
        },
        {
          "internalType": "string",
          "name": "name",
          "type": "string"
        },
        {
          "internalType": "string",
          "name": "imageUrl",
          "type": "string"
        },
        {
          "internalType": "uint256",
          "name": "date",
          "type": "uint256"
        },
        {
          "internalType": "address",
          "name": "owner",
          "type": "address"
        },
        {
          "internalType": "uint256",
          "name": "price",
          "type": "uint256"
        }
      ],
      "stateMutability": "view",
      "type": "function",
      "constant": true
    },
    {
      "inputs": [
        {
          "internalType": "uint256",
          "name": "tokenId",
          "type": "uint256"
        }
      ],
      "name": "ownerOf",
      "outputs": [
        {
          "internalType": "address",
          "name": "",
          "type": "address"
        }
      ],
      "stateMutability": "view",
      "type": "function",
      "constant": true
    },
    {
      "inputs": [
        {
          "internalType": "address",
          "name": "from",
          "type": "address"
        },
        {
          "internalType": "address",
          "name": "to",
          "type": "address"
        },
        {
          "internalType": "uint256",
          "name": "tokenId",
          "type": "uint256"
        }
      ],
      "name": "safeTransferFrom",
      "outputs": [],
      "stateMutability": "nonpayable",
      "type": "function"
    },
    {
      "inputs": [
        {
          "internalType": "address",
          "name": "from",
          "type": "address"
        },
        {
          "internalType": "address",
          "name": "to",
          "type": "address"
        },
        {
          "internalType": "uint256",
          "name": "tokenId",
          "type": "uint256"
        },
        {
          "internalType": "bytes",
          "name": "_data",
          "type": "bytes"
        }
      ],
      "name": "safeTransferFrom",
      "outputs": [],
      "stateMutability": "nonpayable",
      "type": "function"
    },
    {
      "inputs": [
        {
          "internalType": "address",
          "name": "operator",
          "type": "address"
        },
        {
          "internalType": "bool",
          "name": "approved",
          "type": "bool"
        }
      ],
      "name": "setApprovalForAll",
      "outputs": [],
      "stateMutability": "nonpayable",
      "type": "function"
    },
    {
      "inputs": [
        {
          "internalType": "bytes4",
          "name": "interfaceId",
          "type": "bytes4"
        }
      ],
      "name": "supportsInterface",
      "outputs": [
        {
          "internalType": "bool",
          "name": "",
          "type": "bool"
        }
      ],
      "stateMutability": "view",
      "type": "function",
      "constant": true
    },
    {
      "inputs": [],
      "name": "symbol",
      "outputs": [
        {
          "internalType": "string",
          "name": "",
          "type": "string"
        }
      ],
      "stateMutability": "view",
      "type": "function",
      "constant": true
    },
    {
      "inputs": [
        {
          "internalType": "uint256",
          "name": "index",
          "type": "uint256"
        }
      ],
      "name": "tokenByIndex",
      "outputs": [
        {
          "internalType": "uint256",
          "name": "",
          "type": "uint256"
        }
      ],
      "stateMutability": "view",
      "type": "function",
      "constant": true
    },
    {
      "inputs": [
        {
          "internalType": "address",
          "name": "owner",
          "type": "address"
        },
        {
          "internalType": "uint256",
          "name": "index",
          "type": "uint256"
        }
      ],
      "name": "tokenOfOwnerByIndex",
      "outputs": [
        {
          "internalType": "uint256",
          "name": "",
          "type": "uint256"
        }
      ],
      "stateMutability": "view",
      "type": "function",
      "constant": true
    },
    {
      "inputs": [
        {
          "internalType": "uint256",
          "name": "tokenId",
          "type": "uint256"
        }
      ],
      "name": "tokenURI",
      "outputs": [
        {
          "internalType": "string",
          "name": "",
          "type": "string"
        }
      ],
      "stateMutability": "view",
      "type": "function",
      "constant": true
    },
    {
      "inputs": [],
      "name": "totalSupply",
      "outputs": [
        {
          "internalType": "uint256",
          "name": "",
          "type": "uint256"
        }
      ],
      "stateMutability": "view",
      "type": "function",
      "constant": true
    },
    {
      "inputs": [
        {
          "internalType": "address",
          "name": "from",
          "type": "address"
        },
        {
          "internalType": "address",
          "name": "to",
          "type": "address"
        },
        {
          "internalType": "uint256",
          "name": "tokenId",
          "type": "uint256"
        }
      ],
      "name": "transferFrom",
      "outputs": [],
      "stateMutability": "nonpayable",
      "type": "function"
    },
    {
      "inputs": [
        {
          "internalType": "address",
          "name": "addr",
          "type": "address"
        },
        {
          "internalType": "uint256",
          "name": "i",
          "type": "uint256"
        }
      ],
      "name": "getNfts",
      "outputs": [
        {
          "components": [
            {
              "internalType": "uint256",
              "name": "id",
              "type": "uint256"
            },
            {
              "internalType": "string",
              "name": "name",
              "type": "string"
            },
            {
              "internalType": "string",
              "name": "imageUrl",
              "type": "string"
            },
            {
              "internalType": "uint256",
              "name": "date",
              "type": "uint256"
            },
            {
              "internalType": "address",
              "name": "owner",
              "type": "address"
            },
            {
              "internalType": "uint256",
              "name": "price",
              "type": "uint256"
            }
          ],
          "internalType": "struct NFT.Nft",
          "name": "",
          "type": "tuple"
        }
      ],
      "stateMutability": "view",
      "type": "function",
      "constant": true
    },
    {
      "inputs": [
        {
          "internalType": "uint256",
          "name": "i",
          "type": "uint256"
        }
      ],
      "name": "getNftsMarket",
      "outputs": [
        {
          "components": [
            {
              "internalType": "uint256",
              "name": "id",
              "type": "uint256"
            },
            {
              "internalType": "string",
              "name": "name",
              "type": "string"
            },
            {
              "internalType": "string",
              "name": "imageUrl",
              "type": "string"
            },
            {
              "internalType": "uint256",
              "name": "date",
              "type": "uint256"
            },
            {
              "internalType": "address",
              "name": "owner",
              "type": "address"
            },
            {
              "internalType": "uint256",
              "name": "price",
              "type": "uint256"
            }
          ],
          "internalType": "struct NFT.Nft",
          "name": "",
          "type": "tuple"
        }
      ],
      "stateMutability": "view",
      "type": "function",
      "constant": true
    },
    {
      "inputs": [
        {
          "internalType": "address",
          "name": "to",
          "type": "address"
        },
        {
          "internalType": "string",
          "name": "name",
          "type": "string"
        },
        {
          "internalType": "string",
          "name": "imageUrl",
          "type": "string"
        }
      ],
      "name": "mint",
      "outputs": [],
      "stateMutability": "payable",
      "type": "function",
      "payable": true
    }
  ],
  "bytecode": "0x60806040523480156200001157600080fd5b506040518060400160405280600981526020017f506978656c2041727400000000000000000000000000000000000000000000008152506040518060400160405280600381526020017f504152000000000000000000000000000000000000000000000000000000000081525081600090805190602001906200009692919062000f93565b508060019080519060200190620000af92919062000f93565b50505033600b60006101000a81548173ffffffffffffffffffffffffffffffffffffffff021916908373ffffffffffffffffffffffffffffffffffffffff1602179055506200016f6040518060400160405280600381526020017f666f7800000000000000000000000000000000000000000000000000000000008152506040518060400160405280601f81526020017f687474703a2f2f6c6f63616c686f73743a333030302f74687265652e706e67008152506200036560201b60201c565b620001eb6040518060400160405280600381526020017f63617400000000000000000000000000000000000000000000000000000000008152506040518060400160405280601e81526020017f687474703a2f2f6c6f63616c686f73743a333030302f666f75722e706e6700008152506200036560201b60201c565b620002676040518060400160405280600581526020017f7768616c650000000000000000000000000000000000000000000000000000008152506040518060400160405280601e81526020017f687474703a2f2f6c6f63616c686f73743a333030302f666976652e706e6700008152506200036560201b60201c565b620002e36040518060400160405280600381526020017f63617400000000000000000000000000000000000000000000000000000000008152506040518060400160405280601e81526020017f687474703a2f2f6c6f63616c686f73743a333030302f7369782e6a70656700008152506200036560201b60201c565b6200035f6040518060400160405280600381526020017f646f6700000000000000000000000000000000000000000000000000000000008152506040518060400160405280601f81526020017f687474703a2f2f6c6f63616c686f73743a333030302f736576656e2e706e67008152506200036560201b60201c565b62001615565b600b60009054906101000a900473ffffffffffffffffffffffffffffffffffffffff1673ffffffffffffffffffffffffffffffffffffffff163373ffffffffffffffffffffffffffffffffffffffff1614620003f8576040517f08c379a0000000000000000000000000000000000000000000000000000000008152600401620003ef90620012f9565b60405180910390fd5b6200040c30600a546200053760201b60201c565b60006040518060c00160405280600a5481526020018481526020018381526020014281526020013073ffffffffffffffffffffffffffffffffffffffff168152602001662386f26fc10000815250905080600d6000600a5481526020019081526020016000206000820151816000015560208201518160010190805190602001906200049a92919062000f93565b506040820151816002019080519060200190620004b992919062000f93565b506060820151816003015560808201518160040160006101000a81548173ffffffffffffffffffffffffffffffffffffffff021916908373ffffffffffffffffffffffffffffffffffffffff16021790555060a08201518160050155905050600a60008154809291906200052d906200153e565b9190505550505050565b620005598282604051806020016040528060008152506200055d60201b60201c565b5050565b6200056f8383620005cb60201b60201c565b620005846000848484620007b160201b60201c565b620005c6576040517f08c379a0000000000000000000000000000000000000000000000000000000008152600401620005bd906200131b565b60405180910390fd5b505050565b600073ffffffffffffffffffffffffffffffffffffffff168273ffffffffffffffffffffffffffffffffffffffff1614156200063e576040517f08c379a0000000000000000000000000000000000000000000000000000000008152600401620006359062001381565b60405180910390fd5b6200064f816200096b60201b60201c565b1562000692576040517f08c379a000000000000000000000000000000000000000000000000000000000815260040162000689906200133d565b60405180910390fd5b620006a660008383620009d760201b60201c565b6001600360008473ffffffffffffffffffffffffffffffffffffffff1673ffffffffffffffffffffffffffffffffffffffff1681526020019081526020016000206000828254620006f89190620013d0565b92505081905550816002600083815260200190815260200160002060006101000a81548173ffffffffffffffffffffffffffffffffffffffff021916908373ffffffffffffffffffffffffffffffffffffffff160217905550808273ffffffffffffffffffffffffffffffffffffffff16600073ffffffffffffffffffffffffffffffffffffffff167fddf252ad1be2c89b69c2b068fc378daa952ba7f163c4a11628f55a4df523b3ef60405160405180910390a45050565b6000620007df8473ffffffffffffffffffffffffffffffffffffffff1662000b1e60201b620018981760201c565b156200095e578373ffffffffffffffffffffffffffffffffffffffff1663150b7a026200081162000b3160201b60201c565b8786866040518563ffffffff1660e01b8152600401620008359493929190620012a5565b602060405180830381600087803b1580156200085057600080fd5b505af19250505080156200088457506040513d601f19601f820116820180604052508101906200088191906200105a565b60015b6200090d573d8060008114620008b7576040519150601f19603f3d011682016040523d82523d6000602084013e620008bc565b606091505b5060008151141562000905576040517f08c379a0000000000000000000000000000000000000000000000000000000008152600401620008fc906200131b565b60405180910390fd5b805181602001fd5b63150b7a0260e01b7bffffffffffffffffffffffffffffffffffffffffffffffffffffffff1916817bffffffffffffffffffffffffffffffffffffffffffffffffffffffff19161491505062000963565b600190505b949350505050565b60008073ffffffffffffffffffffffffffffffffffffffff166002600084815260200190815260200160002060009054906101000a900473ffffffffffffffffffffffffffffffffffffffff1673ffffffffffffffffffffffffffffffffffffffff1614159050919050565b620009ef83838362000b3960201b620018ab1760201c565b600073ffffffffffffffffffffffffffffffffffffffff168373ffffffffffffffffffffffffffffffffffffffff16141562000a3c5762000a368162000b3e60201b60201c565b62000a84565b8173ffffffffffffffffffffffffffffffffffffffff168373ffffffffffffffffffffffffffffffffffffffff161462000a835762000a82838262000b8760201b60201c565b5b5b600073ffffffffffffffffffffffffffffffffffffffff168273ffffffffffffffffffffffffffffffffffffffff16141562000ad15762000acb8162000d0460201b60201c565b62000b19565b8273ffffffffffffffffffffffffffffffffffffffff168273ffffffffffffffffffffffffffffffffffffffff161462000b185762000b17828262000e4c60201b60201c565b5b5b505050565b600080823b905060008111915050919050565b600033905090565b505050565b6008805490506009600083815260200190815260200160002081905550600881908060018154018082558091505060019003906000526020600020016000909190919091505550565b6000600162000ba18462000ed860201b62000c881760201c565b62000bad91906200142d565b905060006007600084815260200190815260200160002054905081811462000c93576000600660008673ffffffffffffffffffffffffffffffffffffffff1673ffffffffffffffffffffffffffffffffffffffff168152602001908152602001600020600084815260200190815260200160002054905080600660008773ffffffffffffffffffffffffffffffffffffffff1673ffffffffffffffffffffffffffffffffffffffff168152602001908152602001600020600084815260200190815260200160002081905550816007600083815260200190815260200160002081905550505b6007600084815260200190815260200160002060009055600660008573ffffffffffffffffffffffffffffffffffffffff1673ffffffffffffffffffffffffffffffffffffffff16815260200190815260200160002060008381526020019081526020016000206000905550505050565b6000600160088054905062000d1a91906200142d565b905060006009600084815260200190815260200160002054905060006008838154811062000d71577f4e487b7100000000000000000000000000000000000000000000000000000000600052603260045260246000fd5b90600052602060002001549050806008838154811062000dba577f4e487b7100000000000000000000000000000000000000000000000000000000600052603260045260246000fd5b90600052602060002001819055508160096000838152602001908152602001600020819055506009600085815260200190815260200160002060009055600880548062000e30577f4e487b7100000000000000000000000000000000000000000000000000000000600052603160045260246000fd5b6001900381819060005260206000200160009055905550505050565b600062000e648362000ed860201b62000c881760201c565b905081600660008573ffffffffffffffffffffffffffffffffffffffff1673ffffffffffffffffffffffffffffffffffffffff168152602001908152602001600020600083815260200190815260200160002081905550806007600084815260200190815260200160002081905550505050565b60008073ffffffffffffffffffffffffffffffffffffffff168273ffffffffffffffffffffffffffffffffffffffff16141562000f4c576040517f08c379a000000000000000000000000000000000000000000000000000000000815260040162000f43906200135f565b60405180910390fd5b600360008373ffffffffffffffffffffffffffffffffffffffff1673ffffffffffffffffffffffffffffffffffffffff168152602001908152602001600020549050919050565b82805462000fa19062001508565b90600052602060002090601f01602090048101928262000fc5576000855562001011565b82601f1062000fe057805160ff191683800117855562001011565b8280016001018555821562001011579182015b828111156200101057825182559160200191906001019062000ff3565b5b50905062001020919062001024565b5090565b5b808211156200103f57600081600090555060010162001025565b5090565b6000815190506200105481620015fb565b92915050565b6000602082840312156200106d57600080fd5b60006200107d8482850162001043565b91505092915050565b620010918162001468565b82525050565b6000620010a482620013a3565b620010b08185620013ae565b9350620010c2818560208601620014d2565b620010cd81620015ea565b840191505092915050565b6000620010e7602183620013bf565b91507f796f75277265206e6f7420616c6c6f7765642e206d7573742062652061646d6960008301527f6e000000000000000000000000000000000000000000000000000000000000006020830152604082019050919050565b60006200114f603283620013bf565b91507f4552433732313a207472616e7366657220746f206e6f6e20455243373231526560008301527f63656976657220696d706c656d656e74657200000000000000000000000000006020830152604082019050919050565b6000620011b7601c83620013bf565b91507f4552433732313a20746f6b656e20616c7265616479206d696e746564000000006000830152602082019050919050565b6000620011f9602a83620013bf565b91507f4552433732313a2062616c616e636520717565727920666f7220746865207a6560008301527f726f2061646472657373000000000000000000000000000000000000000000006020830152604082019050919050565b600062001261602083620013bf565b91507f4552433732313a206d696e7420746f20746865207a65726f20616464726573736000830152602082019050919050565b6200129f81620014c8565b82525050565b6000608082019050620012bc600083018762001086565b620012cb602083018662001086565b620012da604083018562001294565b8181036060830152620012ee818462001097565b905095945050505050565b600060208201905081810360008301526200131481620010d8565b9050919050565b60006020820190508181036000830152620013368162001140565b9050919050565b600060208201905081810360008301526200135881620011a8565b9050919050565b600060208201905081810360008301526200137a81620011ea565b9050919050565b600060208201905081810360008301526200139c8162001252565b9050919050565b600081519050919050565b600082825260208201905092915050565b600082825260208201905092915050565b6000620013dd82620014c8565b9150620013ea83620014c8565b9250827fffffffffffffffffffffffffffffffffffffffffffffffffffffffffffffffff038211156200142257620014216200158c565b5b828201905092915050565b60006200143a82620014c8565b91506200144783620014c8565b9250828210156200145d576200145c6200158c565b5b828203905092915050565b60006200147582620014a8565b9050919050565b60007fffffffff0000000000000000000000000000000000000000000000000000000082169050919050565b600073ffffffffffffffffffffffffffffffffffffffff82169050919050565b6000819050919050565b60005b83811015620014f2578082015181840152602081019050620014d5565b8381111562001502576000848401525b50505050565b600060028204905060018216806200152157607f821691505b60208210811415620015385762001537620015bb565b5b50919050565b60006200154b82620014c8565b91507fffffffffffffffffffffffffffffffffffffffffffffffffffffffffffffffff8214156200158157620015806200158c565b5b600182019050919050565b7f4e487b7100000000000000000000000000000000000000000000000000000000600052601160045260246000fd5b7f4e487b7100000000000000000000000000000000000000000000000000000000600052602260045260246000fd5b6000601f19601f8301169050919050565b62001606816200147c565b81146200161257600080fd5b50565b613e1680620016256000396000f3fe6080604052600436106101405760003560e01c806370a08231116100b6578063b88d4fde1161006f578063b88d4fde146104a3578063c87b56dd146104cc578063d0f50a4614610509578063e65aa53614610546578063e985e9c514610583578063f851a440146105c057610140565b806370a082311461038957806375794a3c146103c6578063769add7f146103f157806395d89b4114610433578063990711901461045e578063a22cb4651461047a57610140565b806323b872dd1161010857806323b872dd1461023e5780632f745c591461026757806342842e0e146102a457806343af356b146102cd5780634f6ccce71461030f5780636352211e1461034c57610140565b806301ffc9a71461014557806306fdde0314610182578063081812fc146101ad578063095ea7b3146101ea57806318160ddd14610213575b600080fd5b34801561015157600080fd5b5061016c60048036038101906101679190612d3b565b6105eb565b604051610179919061368c565b60405180910390f35b34801561018e57600080fd5b50610197610665565b6040516101a491906136a7565b60405180910390f35b3480156101b957600080fd5b506101d460048036038101906101cf9190612d8d565b6106f7565b6040516101e19190613625565b60405180910390f35b3480156101f657600080fd5b50610211600480360381019061020c9190612cff565b61077c565b005b34801561021f57600080fd5b50610228610894565b604051610235919061392b565b60405180910390f35b34801561024a57600080fd5b5061026560048036038101906102609190612b7a565b6108a1565b005b34801561027357600080fd5b5061028e60048036038101906102899190612cff565b610901565b60405161029b919061392b565b60405180910390f35b3480156102b057600080fd5b506102cb60048036038101906102c69190612b7a565b6109a6565b005b3480156102d957600080fd5b506102f460048036038101906102ef9190612cff565b6109c6565b60405161030696959493929190613946565b60405180910390f35b34801561031b57600080fd5b5061033660048036038101906103319190612d8d565b610b3f565b604051610343919061392b565b60405180910390f35b34801561035857600080fd5b50610373600480360381019061036e9190612d8d565b610bd6565b6040516103809190613625565b60405180910390f35b34801561039557600080fd5b506103b060048036038101906103ab9190612b15565b610c88565b6040516103bd919061392b565b60405180910390f35b3480156103d257600080fd5b506103db610d40565b6040516103e8919061392b565b60405180910390f35b3480156103fd57600080fd5b5061041860048036038101906104139190612d8d565b610d46565b60405161042a96959493929190613946565b60405180910390f35b34801561043f57600080fd5b50610448610eb2565b60405161045591906136a7565b60405180910390f35b61047860048036038101906104739190612c80565b610f44565b005b34801561048657600080fd5b506104a1600480360381019061049c9190612c44565b61118c565b005b3480156104af57600080fd5b506104ca60048036038101906104c59190612bc9565b61130d565b005b3480156104d857600080fd5b506104f360048036038101906104ee9190612d8d565b61136f565b60405161050091906136a7565b60405180910390f35b34801561051557600080fd5b50610530600480360381019061052b9190612cff565b611416565b60405161053d9190613909565b60405180910390f35b34801561055257600080fd5b5061056d60048036038101906105689190612d8d565b611619565b60405161057a9190613909565b60405180910390f35b34801561058f57600080fd5b506105aa60048036038101906105a59190612b3e565b6117de565b6040516105b7919061368c565b60405180910390f35b3480156105cc57600080fd5b506105d5611872565b6040516105e29190613625565b60405180910390f35b60007f780e9d63000000000000000000000000000000000000000000000000000000007bffffffffffffffffffffffffffffffffffffffffffffffffffffffff1916827bffffffffffffffffffffffffffffffffffffffffffffffffffffffff1916148061065e575061065d826118b0565b5b9050919050565b60606000805461067490613c0b565b80601f01602080910402602001604051908101604052809291908181526020018280546106a090613c0b565b80156106ed5780601f106106c2576101008083540402835291602001916106ed565b820191906000526020600020905b8154815290600101906020018083116106d057829003601f168201915b5050505050905090565b600061070282611992565b610741576040517f08c379a000000000000000000000000000000000000000000000000000000000815260040161073890613849565b60405180910390fd5b6004600083815260200190815260200160002060009054906101000a900473ffffffffffffffffffffffffffffffffffffffff169050919050565b600061078782610bd6565b90508073ffffffffffffffffffffffffffffffffffffffff168373ffffffffffffffffffffffffffffffffffffffff1614156107f8576040517f08c379a00000000000000000000000000000000000000000000000000000000081526004016107ef906138a9565b60405180910390fd5b8073ffffffffffffffffffffffffffffffffffffffff166108176119fe565b73ffffffffffffffffffffffffffffffffffffffff1614806108465750610845816108406119fe565b6117de565b5b610885576040517f08c379a000000000000000000000000000000000000000000000000000000000815260040161087c906137a9565b60405180910390fd5b61088f8383611a06565b505050565b6000600880549050905090565b6108b26108ac6119fe565b82611abf565b6108f1576040517f08c379a00000000000000000000000000000000000000000000000000000000081526004016108e8906138c9565b60405180910390fd5b6108fc838383611b9d565b505050565b600061090c83610c88565b821061094d576040517f08c379a0000000000000000000000000000000000000000000000000000000008152600401610944906136c9565b60405180910390fd5b600660008473ffffffffffffffffffffffffffffffffffffffff1673ffffffffffffffffffffffffffffffffffffffff168152602001908152602001600020600083815260200190815260200160002054905092915050565b6109c18383836040518060200160405280600081525061130d565b505050565b600c602052816000526040600020602052806000526040600020600091509150508060000154908060010180546109fc90613c0b565b80601f0160208091040260200160405190810160405280929190818152602001828054610a2890613c0b565b8015610a755780601f10610a4a57610100808354040283529160200191610a75565b820191906000526020600020905b815481529060010190602001808311610a5857829003601f168201915b505050505090806002018054610a8a90613c0b565b80601f0160208091040260200160405190810160405280929190818152602001828054610ab690613c0b565b8015610b035780601f10610ad857610100808354040283529160200191610b03565b820191906000526020600020905b815481529060010190602001808311610ae657829003601f168201915b5050505050908060030154908060040160009054906101000a900473ffffffffffffffffffffffffffffffffffffffff16908060050154905086565b6000610b49610894565b8210610b8a576040517f08c379a0000000000000000000000000000000000000000000000000000000008152600401610b81906138e9565b60405180910390fd5b60088281548110610bc4577f4e487b7100000000000000000000000000000000000000000000000000000000600052603260045260246000fd5b90600052602060002001549050919050565b6000806002600084815260200190815260200160002060009054906101000a900473ffffffffffffffffffffffffffffffffffffffff169050600073ffffffffffffffffffffffffffffffffffffffff168173ffffffffffffffffffffffffffffffffffffffff161415610c7f576040517f08c379a0000000000000000000000000000000000000000000000000000000008152600401610c76906137e9565b60405180910390fd5b80915050919050565b60008073ffffffffffffffffffffffffffffffffffffffff168273ffffffffffffffffffffffffffffffffffffffff161415610cf9576040517f08c379a0000000000000000000000000000000000000000000000000000000008152600401610cf0906137c9565b60405180910390fd5b600360008373ffffffffffffffffffffffffffffffffffffffff1673ffffffffffffffffffffffffffffffffffffffff168152602001908152602001600020549050919050565b600a5481565b600d602052806000526040600020600091509050806000015490806001018054610d6f90613c0b565b80601f0160208091040260200160405190810160405280929190818152602001828054610d9b90613c0b565b8015610de85780601f10610dbd57610100808354040283529160200191610de8565b820191906000526020600020905b815481529060010190602001808311610dcb57829003601f168201915b505050505090806002018054610dfd90613c0b565b80601f0160208091040260200160405190810160405280929190818152602001828054610e2990613c0b565b8015610e765780601f10610e4b57610100808354040283529160200191610e76565b820191906000526020600020905b815481529060010190602001808311610e5957829003601f168201915b5050505050908060030154908060040160009054906101000a900473ffffffffffffffffffffffffffffffffffffffff16908060050154905086565b606060018054610ec190613c0b565b80601f0160208091040260200160405190810160405280929190818152602001828054610eed90613c0b565b8015610f3a5780601f10610f0f57610100808354040283529160200191610f3a565b820191906000526020600020905b815481529060010190602001808311610f1d57829003601f168201915b5050505050905090565b600b60009054906101000a900473ffffffffffffffffffffffffffffffffffffffff1673ffffffffffffffffffffffffffffffffffffffff163373ffffffffffffffffffffffffffffffffffffffff1614610fd4576040517f08c379a0000000000000000000000000000000000000000000000000000000008152600401610fcb906136e9565b60405180910390fd5b662386f26fc10000341461101d576040517f08c379a000000000000000000000000000000000000000000000000000000000815260040161101490613809565b60405180910390fd5b61102983600a54611df9565b60006040518060c00160405280600a5481526020018481526020018381526020014281526020018573ffffffffffffffffffffffffffffffffffffffff168152602001662386f26fc10000815250905080600c60008673ffffffffffffffffffffffffffffffffffffffff1673ffffffffffffffffffffffffffffffffffffffff1681526020019081526020016000206000600a5481526020019081526020016000206000820151816000015560208201518160010190805190602001906110f29291906128ed565b50604082015181600201908051906020019061110f9291906128ed565b506060820151816003015560808201518160040160006101000a81548173ffffffffffffffffffffffffffffffffffffffff021916908373ffffffffffffffffffffffffffffffffffffffff16021790555060a08201518160050155905050600a600081548092919061118190613c3d565b919050555050505050565b6111946119fe565b73ffffffffffffffffffffffffffffffffffffffff168273ffffffffffffffffffffffffffffffffffffffff161415611202576040517f08c379a00000000000000000000000000000000000000000000000000000000081526004016111f990613769565b60405180910390fd5b806005600061120f6119fe565b73ffffffffffffffffffffffffffffffffffffffff1673ffffffffffffffffffffffffffffffffffffffff16815260200190815260200160002060008473ffffffffffffffffffffffffffffffffffffffff1673ffffffffffffffffffffffffffffffffffffffff16815260200190815260200160002060006101000a81548160ff0219169083151502179055508173ffffffffffffffffffffffffffffffffffffffff166112bc6119fe565b73ffffffffffffffffffffffffffffffffffffffff167f17307eab39ab6107e8899845ad3d59bd9653f200f220920489ca2b5937696c3183604051611301919061368c565b60405180910390a35050565b61131e6113186119fe565b83611abf565b61135d576040517f08c379a0000000000000000000000000000000000000000000000000000000008152600401611354906138c9565b60405180910390fd5b61136984848484611e17565b50505050565b606061137a82611992565b6113b9576040517f08c379a00000000000000000000000000000000000000000000000000000000081526004016113b090613889565b60405180910390fd5b60006113c3611e73565b905060008151116113e3576040518060200160405280600081525061140e565b806113ed84611e8a565b6040516020016113fe929190613601565b6040516020818303038152906040525b915050919050565b61141e612973565b600c60008473ffffffffffffffffffffffffffffffffffffffff1673ffffffffffffffffffffffffffffffffffffffff16815260200190815260200160002060008381526020019081526020016000206040518060c00160405290816000820154815260200160018201805461149390613c0b565b80601f01602080910402602001604051908101604052809291908181526020018280546114bf90613c0b565b801561150c5780601f106114e15761010080835404028352916020019161150c565b820191906000526020600020905b8154815290600101906020018083116114ef57829003601f168201915b5050505050815260200160028201805461152590613c0b565b80601f016020809104026020016040519081016040528092919081815260200182805461155190613c0b565b801561159e5780601f106115735761010080835404028352916020019161159e565b820191906000526020600020905b81548152906001019060200180831161158157829003601f168201915b50505050508152602001600382015481526020016004820160009054906101000a900473ffffffffffffffffffffffffffffffffffffffff1673ffffffffffffffffffffffffffffffffffffffff1673ffffffffffffffffffffffffffffffffffffffff168152602001600582015481525050905092915050565b611621612973565b600d60008381526020019081526020016000206040518060c00160405290816000820154815260200160018201805461165990613c0b565b80601f016020809104026020016040519081016040528092919081815260200182805461168590613c0b565b80156116d25780601f106116a7576101008083540402835291602001916116d2565b820191906000526020600020905b8154815290600101906020018083116116b557829003601f168201915b505050505081526020016002820180546116eb90613c0b565b80601f016020809104026020016040519081016040528092919081815260200182805461171790613c0b565b80156117645780601f1061173957610100808354040283529160200191611764565b820191906000526020600020905b81548152906001019060200180831161174757829003601f168201915b50505050508152602001600382015481526020016004820160009054906101000a900473ffffffffffffffffffffffffffffffffffffffff1673ffffffffffffffffffffffffffffffffffffffff1673ffffffffffffffffffffffffffffffffffffffff1681526020016005820154815250509050919050565b6000600560008473ffffffffffffffffffffffffffffffffffffffff1673ffffffffffffffffffffffffffffffffffffffff16815260200190815260200160002060008373ffffffffffffffffffffffffffffffffffffffff1673ffffffffffffffffffffffffffffffffffffffff16815260200190815260200160002060009054906101000a900460ff16905092915050565b600b60009054906101000a900473ffffffffffffffffffffffffffffffffffffffff1681565b600080823b905060008111915050919050565b505050565b60007f80ac58cd000000000000000000000000000000000000000000000000000000007bffffffffffffffffffffffffffffffffffffffffffffffffffffffff1916827bffffffffffffffffffffffffffffffffffffffffffffffffffffffff1916148061197b57507f5b5e139f000000000000000000000000000000000000000000000000000000007bffffffffffffffffffffffffffffffffffffffffffffffffffffffff1916827bffffffffffffffffffffffffffffffffffffffffffffffffffffffff1916145b8061198b575061198a82612037565b5b9050919050565b60008073ffffffffffffffffffffffffffffffffffffffff166002600084815260200190815260200160002060009054906101000a900473ffffffffffffffffffffffffffffffffffffffff1673ffffffffffffffffffffffffffffffffffffffff1614159050919050565b600033905090565b816004600083815260200190815260200160002060006101000a81548173ffffffffffffffffffffffffffffffffffffffff021916908373ffffffffffffffffffffffffffffffffffffffff160217905550808273ffffffffffffffffffffffffffffffffffffffff16611a7983610bd6565b73ffffffffffffffffffffffffffffffffffffffff167f8c5be1e5ebec7d5bd14f71427d1e84f3dd0314c0f7b2291e5b200ac8c7c3b92560405160405180910390a45050565b6000611aca82611992565b611b09576040517f08c379a0000000000000000000000000000000000000000000000000000000008152600401611b0090613789565b60405180910390fd5b6000611b1483610bd6565b90508073ffffffffffffffffffffffffffffffffffffffff168473ffffffffffffffffffffffffffffffffffffffff161480611b8357508373ffffffffffffffffffffffffffffffffffffffff16611b6b846106f7565b73ffffffffffffffffffffffffffffffffffffffff16145b80611b945750611b9381856117de565b5b91505092915050565b8273ffffffffffffffffffffffffffffffffffffffff16611bbd82610bd6565b73ffffffffffffffffffffffffffffffffffffffff1614611c13576040517f08c379a0000000000000000000000000000000000000000000000000000000008152600401611c0a90613869565b60405180910390fd5b600073ffffffffffffffffffffffffffffffffffffffff168273ffffffffffffffffffffffffffffffffffffffff161415611c83576040517f08c379a0000000000000000000000000000000000000000000000000000000008152600401611c7a90613749565b60405180910390fd5b611c8e8383836120a1565b611c99600082611a06565b6001600360008573ffffffffffffffffffffffffffffffffffffffff1673ffffffffffffffffffffffffffffffffffffffff1681526020019081526020016000206000828254611ce99190613b21565b925050819055506001600360008473ffffffffffffffffffffffffffffffffffffffff1673ffffffffffffffffffffffffffffffffffffffff1681526020019081526020016000206000828254611d409190613a9a565b92505081905550816002600083815260200190815260200160002060006101000a81548173ffffffffffffffffffffffffffffffffffffffff021916908373ffffffffffffffffffffffffffffffffffffffff160217905550808273ffffffffffffffffffffffffffffffffffffffff168473ffffffffffffffffffffffffffffffffffffffff167fddf252ad1be2c89b69c2b068fc378daa952ba7f163c4a11628f55a4df523b3ef60405160405180910390a4505050565b611e138282604051806020016040528060008152506121b5565b5050565b611e22848484611b9d565b611e2e84848484612210565b611e6d576040517f08c379a0000000000000000000000000000000000000000000000000000000008152600401611e6490613709565b60405180910390fd5b50505050565b606060405180602001604052806000815250905090565b60606000821415611ed2576040518060400160405280600181526020017f30000000000000000000000000000000000000000000000000000000000000008152509050612032565b600082905060005b60008214611f04578080611eed90613c3d565b915050600a82611efd9190613af0565b9150611eda565b60008167ffffffffffffffff811115611f46577f4e487b7100000000000000000000000000000000000000000000000000000000600052604160045260246000fd5b6040519080825280601f01601f191660200182016040528015611f785781602001600182028036833780820191505090505b5090505b6000851461202b57600182611f919190613b21565b9150600a85611fa09190613c86565b6030611fac9190613a9a565b60f81b818381518110611fe8577f4e487b7100000000000000000000000000000000000000000000000000000000600052603260045260246000fd5b60200101907effffffffffffffffffffffffffffffffffffffffffffffffffffffffffffff1916908160001a905350600a856120249190613af0565b9450611f7c565b8093505050505b919050565b60007f01ffc9a7000000000000000000000000000000000000000000000000000000007bffffffffffffffffffffffffffffffffffffffffffffffffffffffff1916827bffffffffffffffffffffffffffffffffffffffffffffffffffffffff1916149050919050565b6120ac8383836118ab565b600073ffffffffffffffffffffffffffffffffffffffff168373ffffffffffffffffffffffffffffffffffffffff1614156120ef576120ea816123a7565b61212e565b8173ffffffffffffffffffffffffffffffffffffffff168373ffffffffffffffffffffffffffffffffffffffff161461212d5761212c83826123f0565b5b5b600073ffffffffffffffffffffffffffffffffffffffff168273ffffffffffffffffffffffffffffffffffffffff1614156121715761216c8161255d565b6121b0565b8273ffffffffffffffffffffffffffffffffffffffff168273ffffffffffffffffffffffffffffffffffffffff16146121af576121ae82826126a0565b5b5b505050565b6121bf838361271f565b6121cc6000848484612210565b61220b576040517f08c379a000000000000000000000000000000000000000000000000000000000815260040161220290613709565b60405180910390fd5b505050565b60006122318473ffffffffffffffffffffffffffffffffffffffff16611898565b1561239a578373ffffffffffffffffffffffffffffffffffffffff1663150b7a0261225a6119fe565b8786866040518563ffffffff1660e01b815260040161227c9493929190613640565b602060405180830381600087803b15801561229657600080fd5b505af19250505080156122c757506040513d601f19601f820116820180604052508101906122c49190612d64565b60015b61234a573d80600081146122f7576040519150601f19603f3d011682016040523d82523d6000602084013e6122fc565b606091505b50600081511415612342576040517f08c379a000000000000000000000000000000000000000000000000000000000815260040161233990613709565b60405180910390fd5b805181602001fd5b63150b7a0260e01b7bffffffffffffffffffffffffffffffffffffffffffffffffffffffff1916817bffffffffffffffffffffffffffffffffffffffffffffffffffffffff19161491505061239f565b600190505b949350505050565b6008805490506009600083815260200190815260200160002081905550600881908060018154018082558091505060019003906000526020600020016000909190919091505550565b600060016123fd84610c88565b6124079190613b21565b90506000600760008481526020019081526020016000205490508181146124ec576000600660008673ffffffffffffffffffffffffffffffffffffffff1673ffffffffffffffffffffffffffffffffffffffff168152602001908152602001600020600084815260200190815260200160002054905080600660008773ffffffffffffffffffffffffffffffffffffffff1673ffffffffffffffffffffffffffffffffffffffff168152602001908152602001600020600084815260200190815260200160002081905550816007600083815260200190815260200160002081905550505b6007600084815260200190815260200160002060009055600660008573ffffffffffffffffffffffffffffffffffffffff1673ffffffffffffffffffffffffffffffffffffffff16815260200190815260200160002060008381526020019081526020016000206000905550505050565b600060016008805490506125719190613b21565b90506000600960008481526020019081526020016000205490506000600883815481106125c7577f4e487b7100000000000000000000000000000000000000000000000000000000600052603260045260246000fd5b90600052602060002001549050806008838154811061260f577f4e487b7100000000000000000000000000000000000000000000000000000000600052603260045260246000fd5b906000526020600020018190555081600960008381526020019081526020016000208190555060096000858152602001908152602001600020600090556008805480612684577f4e487b7100000000000000000000000000000000000000000000000000000000600052603160045260246000fd5b6001900381819060005260206000200160009055905550505050565b60006126ab83610c88565b905081600660008573ffffffffffffffffffffffffffffffffffffffff1673ffffffffffffffffffffffffffffffffffffffff168152602001908152602001600020600083815260200190815260200160002081905550806007600084815260200190815260200160002081905550505050565b600073ffffffffffffffffffffffffffffffffffffffff168273ffffffffffffffffffffffffffffffffffffffff16141561278f576040517f08c379a000000000000000000000000000000000000000000000000000000000815260040161278690613829565b60405180910390fd5b61279881611992565b156127d8576040517f08c379a00000000000000000000000000000000000000000000000000000000081526004016127cf90613729565b60405180910390fd5b6127e4600083836120a1565b6001600360008473ffffffffffffffffffffffffffffffffffffffff1673ffffffffffffffffffffffffffffffffffffffff16815260200190815260200160002060008282546128349190613a9a565b92505081905550816002600083815260200190815260200160002060006101000a81548173ffffffffffffffffffffffffffffffffffffffff021916908373ffffffffffffffffffffffffffffffffffffffff160217905550808273ffffffffffffffffffffffffffffffffffffffff16600073ffffffffffffffffffffffffffffffffffffffff167fddf252ad1be2c89b69c2b068fc378daa952ba7f163c4a11628f55a4df523b3ef60405160405180910390a45050565b8280546128f990613c0b565b90600052602060002090601f01602090048101928261291b5760008555612962565b82601f1061293457805160ff1916838001178555612962565b82800160010185558215612962579182015b82811115612961578251825591602001919060010190612946565b5b50905061296f91906129bf565b5090565b6040518060c0016040528060008152602001606081526020016060815260200160008152602001600073ffffffffffffffffffffffffffffffffffffffff168152602001600081525090565b5b808211156129d85760008160009055506001016129c0565b5090565b60006129ef6129ea846139e6565b6139b5565b905082815260208101848484011115612a0757600080fd5b612a12848285613bc9565b509392505050565b6000612a2d612a2884613a16565b6139b5565b905082815260208101848484011115612a4557600080fd5b612a50848285613bc9565b509392505050565b600081359050612a6781613d84565b92915050565b600081359050612a7c81613d9b565b92915050565b600081359050612a9181613db2565b92915050565b600081519050612aa681613db2565b92915050565b600082601f830112612abd57600080fd5b8135612acd8482602086016129dc565b91505092915050565b600082601f830112612ae757600080fd5b8135612af7848260208601612a1a565b91505092915050565b600081359050612b0f81613dc9565b92915050565b600060208284031215612b2757600080fd5b6000612b3584828501612a58565b91505092915050565b60008060408385031215612b5157600080fd5b6000612b5f85828601612a58565b9250506020612b7085828601612a58565b9150509250929050565b600080600060608486031215612b8f57600080fd5b6000612b9d86828701612a58565b9350506020612bae86828701612a58565b9250506040612bbf86828701612b00565b9150509250925092565b60008060008060808587031215612bdf57600080fd5b6000612bed87828801612a58565b9450506020612bfe87828801612a58565b9350506040612c0f87828801612b00565b925050606085013567ffffffffffffffff811115612c2c57600080fd5b612c3887828801612aac565b91505092959194509250565b60008060408385031215612c5757600080fd5b6000612c6585828601612a58565b9250506020612c7685828601612a6d565b9150509250929050565b600080600060608486031215612c9557600080fd5b6000612ca386828701612a58565b935050602084013567ffffffffffffffff811115612cc057600080fd5b612ccc86828701612ad6565b925050604084013567ffffffffffffffff811115612ce957600080fd5b612cf586828701612ad6565b9150509250925092565b60008060408385031215612d1257600080fd5b6000612d2085828601612a58565b9250506020612d3185828601612b00565b9150509250929050565b600060208284031215612d4d57600080fd5b6000612d5b84828501612a82565b91505092915050565b600060208284031215612d7657600080fd5b6000612d8484828501612a97565b91505092915050565b600060208284031215612d9f57600080fd5b6000612dad84828501612b00565b91505092915050565b612dbf81613b55565b82525050565b612dce81613b55565b82525050565b612ddd81613b67565b82525050565b6000612dee82613a46565b612df88185613a5c565b9350612e08818560208601613bd8565b612e1181613d73565b840191505092915050565b6000612e2782613a51565b612e318185613a6d565b9350612e41818560208601613bd8565b612e4a81613d73565b840191505092915050565b6000612e6082613a51565b612e6a8185613a7e565b9350612e7a818560208601613bd8565b612e8381613d73565b840191505092915050565b6000612e9982613a51565b612ea38185613a8f565b9350612eb3818560208601613bd8565b80840191505092915050565b6000612ecc602b83613a7e565b91507f455243373231456e756d657261626c653a206f776e657220696e646578206f7560008301527f74206f6620626f756e64730000000000000000000000000000000000000000006020830152604082019050919050565b6000612f32600d83613a7e565b91507f6d7573742062652061646d696e000000000000000000000000000000000000006000830152602082019050919050565b6000612f72603283613a7e565b91507f4552433732313a207472616e7366657220746f206e6f6e20455243373231526560008301527f63656976657220696d706c656d656e74657200000000000000000000000000006020830152604082019050919050565b6000612fd8601c83613a7e565b91507f4552433732313a20746f6b656e20616c7265616479206d696e746564000000006000830152602082019050919050565b6000613018602483613a7e565b91507f4552433732313a207472616e7366657220746f20746865207a65726f2061646460008301527f72657373000000000000000000000000000000000000000000000000000000006020830152604082019050919050565b600061307e601983613a7e565b91507f4552433732313a20617070726f766520746f2063616c6c6572000000000000006000830152602082019050919050565b60006130be602c83613a7e565b91507f4552433732313a206f70657261746f7220717565727920666f72206e6f6e657860008301527f697374656e7420746f6b656e00000000000000000000000000000000000000006020830152604082019050919050565b6000613124603883613a7e565b91507f4552433732313a20617070726f76652063616c6c6572206973206e6f74206f7760008301527f6e6572206e6f7220617070726f76656420666f7220616c6c00000000000000006020830152604082019050919050565b600061318a602a83613a7e565b91507f4552433732313a2062616c616e636520717565727920666f7220746865207a6560008301527f726f2061646472657373000000000000000000000000000000000000000000006020830152604082019050919050565b60006131f0602983613a7e565b91507f4552433732313a206f776e657220717565727920666f72206e6f6e657869737460008301527f656e7420746f6b656e00000000000000000000000000000000000000000000006020830152604082019050919050565b6000613256602183613a7e565b91507f56616c7565206d75737420626520657175616c20746f20302e3031206574686560008301527f72000000000000000000000000000000000000000000000000000000000000006020830152604082019050919050565b60006132bc602083613a7e565b91507f4552433732313a206d696e7420746f20746865207a65726f20616464726573736000830152602082019050919050565b60006132fc602c83613a7e565b91507f4552433732313a20617070726f76656420717565727920666f72206e6f6e657860008301527f697374656e7420746f6b656e00000000000000000000000000000000000000006020830152604082019050919050565b6000613362602983613a7e565b91507f4552433732313a207472616e73666572206f6620746f6b656e2074686174206960008301527f73206e6f74206f776e00000000000000000000000000000000000000000000006020830152604082019050919050565b60006133c8602f83613a7e565b91507f4552433732314d657461646174613a2055524920717565727920666f72206e6f60008301527f6e6578697374656e7420746f6b656e00000000000000000000000000000000006020830152604082019050919050565b600061342e602183613a7e565b91507f4552433732313a20617070726f76616c20746f2063757272656e74206f776e6560008301527f72000000000000000000000000000000000000000000000000000000000000006020830152604082019050919050565b6000613494603183613a7e565b91507f4552433732313a207472616e736665722063616c6c6572206973206e6f74206f60008301527f776e6572206e6f7220617070726f7665640000000000000000000000000000006020830152604082019050919050565b60006134fa602c83613a7e565b91507f455243373231456e756d657261626c653a20676c6f62616c20696e646578206f60008301527f7574206f6620626f756e647300000000000000000000000000000000000000006020830152604082019050919050565b600060c08301600083015161356b60008601826135e3565b50602083015184820360208601526135838282612e1c565b9150506040830151848203604086015261359d8282612e1c565b91505060608301516135b260608601826135e3565b5060808301516135c56080860182612db6565b5060a08301516135d860a08601826135e3565b508091505092915050565b6135ec81613bbf565b82525050565b6135fb81613bbf565b82525050565b600061360d8285612e8e565b91506136198284612e8e565b91508190509392505050565b600060208201905061363a6000830184612dc5565b92915050565b60006080820190506136556000830187612dc5565b6136626020830186612dc5565b61366f60408301856135f2565b81810360608301526136818184612de3565b905095945050505050565b60006020820190506136a16000830184612dd4565b92915050565b600060208201905081810360008301526136c18184612e55565b905092915050565b600060208201905081810360008301526136e281612ebf565b9050919050565b6000602082019050818103600083015261370281612f25565b9050919050565b6000602082019050818103600083015261372281612f65565b9050919050565b6000602082019050818103600083015261374281612fcb565b9050919050565b600060208201905081810360008301526137628161300b565b9050919050565b6000602082019050818103600083015261378281613071565b9050919050565b600060208201905081810360008301526137a2816130b1565b9050919050565b600060208201905081810360008301526137c281613117565b9050919050565b600060208201905081810360008301526137e28161317d565b9050919050565b60006020820190508181036000830152613802816131e3565b9050919050565b6000602082019050818103600083015261382281613249565b9050919050565b60006020820190508181036000830152613842816132af565b9050919050565b60006020820190508181036000830152613862816132ef565b9050919050565b6000602082019050818103600083015261388281613355565b9050919050565b600060208201905081810360008301526138a2816133bb565b9050919050565b600060208201905081810360008301526138c281613421565b9050919050565b600060208201905081810360008301526138e281613487565b9050919050565b60006020820190508181036000830152613902816134ed565b9050919050565b600060208201905081810360008301526139238184613553565b905092915050565b600060208201905061394060008301846135f2565b92915050565b600060c08201905061395b60008301896135f2565b818103602083015261396d8188612e55565b905081810360408301526139818187612e55565b905061399060608301866135f2565b61399d6080830185612dc5565b6139aa60a08301846135f2565b979650505050505050565b6000604051905081810181811067ffffffffffffffff821117156139dc576139db613d44565b5b8060405250919050565b600067ffffffffffffffff821115613a0157613a00613d44565b5b601f19601f8301169050602081019050919050565b600067ffffffffffffffff821115613a3157613a30613d44565b5b601f19601f8301169050602081019050919050565b600081519050919050565b600081519050919050565b600082825260208201905092915050565b600082825260208201905092915050565b600082825260208201905092915050565b600081905092915050565b6000613aa582613bbf565b9150613ab083613bbf565b9250827fffffffffffffffffffffffffffffffffffffffffffffffffffffffffffffffff03821115613ae557613ae4613cb7565b5b828201905092915050565b6000613afb82613bbf565b9150613b0683613bbf565b925082613b1657613b15613ce6565b5b828204905092915050565b6000613b2c82613bbf565b9150613b3783613bbf565b925082821015613b4a57613b49613cb7565b5b828203905092915050565b6000613b6082613b9f565b9050919050565b60008115159050919050565b60007fffffffff0000000000000000000000000000000000000000000000000000000082169050919050565b600073ffffffffffffffffffffffffffffffffffffffff82169050919050565b6000819050919050565b82818337600083830152505050565b60005b83811015613bf6578082015181840152602081019050613bdb565b83811115613c05576000848401525b50505050565b60006002820490506001821680613c2357607f821691505b60208210811415613c3757613c36613d15565b5b50919050565b6000613c4882613bbf565b91507fffffffffffffffffffffffffffffffffffffffffffffffffffffffffffffffff821415613c7b57613c7a613cb7565b5b600182019050919050565b6000613c9182613bbf565b9150613c9c83613bbf565b925082613cac57613cab613ce6565b5b828206905092915050565b7f4e487b7100000000000000000000000000000000000000000000000000000000600052601160045260246000fd5b7f4e487b7100000000000000000000000000000000000000000000000000000000600052601260045260246000fd5b7f4e487b7100000000000000000000000000000000000000000000000000000000600052602260045260246000fd5b7f4e487b7100000000000000000000000000000000000000000000000000000000600052604160045260246000fd5b6000601f19601f8301169050919050565b613d8d81613b55565b8114613d9857600080fd5b50565b613da481613b67565b8114613daf57600080fd5b50565b613dbb81613b73565b8114613dc657600080fd5b50565b613dd281613bbf565b8114613ddd57600080fd5b5056fea264697066735822122024fd7d05fd6b3c7f9b4a79ccb9ddaee04a7c53f7924e483e77a8e6afb35e3f0e64736f6c63430008000033",
  "immutableReferences": {},
  "source": "// SPDX-License-Identifier: MIT\npragma solidity >=0.7.0 <0.9.0;\n\nimport \"../node_modules/@openzeppelin/contracts/token/ERC721/ERC721.sol\";\n// import \"../node_modules/@openzeppelin/contracts/token/ERC721/extensions/IERC721Enumerable.sol\";\nimport \"../node_modules/@openzeppelin/contracts/token/ERC721/extensions/ERC721Enumerable.sol\";\n\ncontract NFT is ERC721Enumerable {\n    uint256 public nextTokenId;\n    address public admin;\n    struct Nft {\n        uint256 id;\n        string name;\n        string imageUrl;\n        uint256 date;\n        address owner;\n        uint256 price;\n    }\n\n    mapping(address => mapping(uint256 => Nft)) public nfts;\n    mapping(uint256 => Nft) public nftsMarket;\n\n    constructor() ERC721(\"Pixel Art\", \"PAR\") {\n        admin = msg.sender;\n\n        _createMarket(\"fox\", \"http://localhost:3000/three.png\");\n        _createMarket(\"cat\", \"http://localhost:3000/four.png\");\n        _createMarket(\"whale\", \"http://localhost:3000/five.png\");\n        _createMarket(\"cat\", \"http://localhost:3000/six.jpeg\");\n        _createMarket(\"dog\", \"http://localhost:3000/seven.png\");\n    }\n\n    function _createMarket(string memory _name, string memory _imageUrl)\n        internal\n    {\n        require(msg.sender == admin, \"you're not allowed. must be admin\");\n\n        // _safeMint(address(this), nextTokenId);\n        _safeMint(address(this), nextTokenId);\n\n        Nft memory n = Nft({\n            id: nextTokenId,\n            name: _name,\n            imageUrl: _imageUrl,\n            date: block.timestamp,\n            owner: address(this),\n            price: 0.01 ether\n        });\n\n        nftsMarket[nextTokenId] = n;\n        nextTokenId++;\n    }\n\n    function getNfts(address addr, uint256 i)\n        external\n        view\n        returns (Nft memory)\n    {\n        return nfts[addr][i];\n    }\n\n    function getNftsMarket(uint256 i) external view returns (Nft memory) {\n        return nftsMarket[i];\n    }\n\n    function mint(\n        address to,\n        string memory name,\n        string memory imageUrl\n    ) external payable {\n        require(msg.sender == admin, \"must be admin\");\n        require(msg.value == 0.01 ether, \"Value must be equal to 0.01 ether\");\n        _safeMint(to, nextTokenId);\n\n        Nft memory n = Nft({\n            id: nextTokenId,\n            name: name,\n            imageUrl: imageUrl,\n            date: block.timestamp,\n            owner: to,\n            price: 0.01 ether\n        });\n\n        nfts[to][nextTokenId] = n;\n\n        nextTokenId++;\n    }\n\n    function _baseURI() internal pure override returns (string memory) {\n        return \"\";\n    }\n}\n",
  "sourcePath": "/Volumes/APPLE HDD/reactprojects/nft3/contracts/NFT.sol",
  "compiler": {
    "name": "solc",
    "version": "0.8.0+commit.c7dfd78e.Emscripten.clang"
  },
  "schemaVersion": "3.4.3",
  "updatedAt": "2021-09-06T14:58:47.562Z",
  "networkType": "ethereum",
  "devdoc": {
    "kind": "dev",
    "methods": {
      "approve(address,uint256)": {
        "details": "See {IERC721-approve}."
      },
      "balanceOf(address)": {
        "details": "See {IERC721-balanceOf}."
      },
      "getApproved(uint256)": {
        "details": "See {IERC721-getApproved}."
      },
      "isApprovedForAll(address,address)": {
        "details": "See {IERC721-isApprovedForAll}."
      },
      "name()": {
        "details": "See {IERC721Metadata-name}."
      },
      "ownerOf(uint256)": {
        "details": "See {IERC721-ownerOf}."
      },
      "safeTransferFrom(address,address,uint256)": {
        "details": "See {IERC721-safeTransferFrom}."
      },
      "safeTransferFrom(address,address,uint256,bytes)": {
        "details": "See {IERC721-safeTransferFrom}."
      },
      "setApprovalForAll(address,bool)": {
        "details": "See {IERC721-setApprovalForAll}."
      },
      "supportsInterface(bytes4)": {
        "details": "See {IERC165-supportsInterface}."
      },
      "symbol()": {
        "details": "See {IERC721Metadata-symbol}."
      },
      "tokenByIndex(uint256)": {
        "details": "See {IERC721Enumerable-tokenByIndex}."
      },
      "tokenOfOwnerByIndex(address,uint256)": {
        "details": "See {IERC721Enumerable-tokenOfOwnerByIndex}."
      },
      "tokenURI(uint256)": {
        "details": "See {IERC721Metadata-tokenURI}."
      },
      "totalSupply()": {
        "details": "See {IERC721Enumerable-totalSupply}."
      },
      "transferFrom(address,address,uint256)": {
        "details": "See {IERC721-transferFrom}."
      }
    },
    "version": 1
  },
  "userdoc": {
    "kind": "user",
    "methods": {},
    "version": 1
  }
}