{
  "contractName": "NFT",
  "abi": [
    {
      "inputs": [],
      "stateMutability": "nonpayable",
      "type": "constructor"
    },
    {
      "anonymous": false,
      "inputs": [
        {
          "indexed": true,
          "internalType": "address",
          "name": "owner",
          "type": "address"
        },
        {
          "indexed": true,
          "internalType": "address",
          "name": "approved",
          "type": "address"
        },
        {
          "indexed": true,
          "internalType": "uint256",
          "name": "tokenId",
          "type": "uint256"
        }
      ],
      "name": "Approval",
      "type": "event"
    },
    {
      "anonymous": false,
      "inputs": [
        {
          "indexed": true,
          "internalType": "address",
          "name": "owner",
          "type": "address"
        },
        {
          "indexed": true,
          "internalType": "address",
          "name": "operator",
          "type": "address"
        },
        {
          "indexed": false,
          "internalType": "bool",
          "name": "approved",
          "type": "bool"
        }
      ],
      "name": "ApprovalForAll",
      "type": "event"
    },
    {
      "anonymous": false,
      "inputs": [
        {
          "indexed": true,
          "internalType": "address",
          "name": "from",
          "type": "address"
        },
        {
          "indexed": true,
          "internalType": "address",
          "name": "to",
          "type": "address"
        },
        {
          "indexed": true,
          "internalType": "uint256",
          "name": "tokenId",
          "type": "uint256"
        }
      ],
      "name": "Transfer",
      "type": "event"
    },
    {
      "inputs": [],
      "name": "admin",
      "outputs": [
        {
          "internalType": "address",
          "name": "",
          "type": "address"
        }
      ],
      "stateMutability": "view",
      "type": "function",
      "constant": true
    },
    {
      "inputs": [
        {
          "internalType": "address",
          "name": "to",
          "type": "address"
        },
        {
          "internalType": "uint256",
          "name": "tokenId",
          "type": "uint256"
        }
      ],
      "name": "approve",
      "outputs": [],
      "stateMutability": "nonpayable",
      "type": "function"
    },
    {
      "inputs": [
        {
          "internalType": "address",
          "name": "owner",
          "type": "address"
        }
      ],
      "name": "balanceOf",
      "outputs": [
        {
          "internalType": "uint256",
          "name": "",
          "type": "uint256"
        }
      ],
      "stateMutability": "view",
      "type": "function",
      "constant": true
    },
    {
      "inputs": [
        {
          "internalType": "uint256",
          "name": "tokenId",
          "type": "uint256"
        }
      ],
      "name": "getApproved",
      "outputs": [
        {
          "internalType": "address",
          "name": "",
          "type": "address"
        }
      ],
      "stateMutability": "view",
      "type": "function",
      "constant": true
    },
    {
      "inputs": [
        {
          "internalType": "address",
          "name": "owner",
          "type": "address"
        },
        {
          "internalType": "address",
          "name": "operator",
          "type": "address"
        }
      ],
      "name": "isApprovedForAll",
      "outputs": [
        {
          "internalType": "bool",
          "name": "",
          "type": "bool"
        }
      ],
      "stateMutability": "view",
      "type": "function",
      "constant": true
    },
    {
      "inputs": [],
      "name": "name",
      "outputs": [
        {
          "internalType": "string",
          "name": "",
          "type": "string"
        }
      ],
      "stateMutability": "view",
      "type": "function",
      "constant": true
    },
    {
      "inputs": [],
      "name": "nextTokenId",
      "outputs": [
        {
          "internalType": "uint256",
          "name": "",
          "type": "uint256"
        }
      ],
      "stateMutability": "view",
      "type": "function",
      "constant": true
    },
    {
      "inputs": [
        {
          "internalType": "address",
          "name": "",
          "type": "address"
        },
        {
          "internalType": "uint256",
          "name": "",
          "type": "uint256"
        }
      ],
      "name": "nfts",
      "outputs": [
        {
          "internalType": "uint256",
          "name": "id",
          "type": "uint256"
        },
        {
          "internalType": "string",
          "name": "name",
          "type": "string"
        },
        {
          "internalType": "string",
          "name": "imageUrl",
          "type": "string"
        },
        {
          "internalType": "uint256",
          "name": "date",
          "type": "uint256"
        },
        {
          "internalType": "address",
          "name": "owner",
          "type": "address"
        }
      ],
      "stateMutability": "view",
      "type": "function",
      "constant": true
    },
    {
      "inputs": [
        {
          "internalType": "uint256",
          "name": "tokenId",
          "type": "uint256"
        }
      ],
      "name": "ownerOf",
      "outputs": [
        {
          "internalType": "address",
          "name": "",
          "type": "address"
        }
      ],
      "stateMutability": "view",
      "type": "function",
      "constant": true
    },
    {
      "inputs": [
        {
          "internalType": "address",
          "name": "from",
          "type": "address"
        },
        {
          "internalType": "address",
          "name": "to",
          "type": "address"
        },
        {
          "internalType": "uint256",
          "name": "tokenId",
          "type": "uint256"
        }
      ],
      "name": "safeTransferFrom",
      "outputs": [],
      "stateMutability": "nonpayable",
      "type": "function"
    },
    {
      "inputs": [
        {
          "internalType": "address",
          "name": "from",
          "type": "address"
        },
        {
          "internalType": "address",
          "name": "to",
          "type": "address"
        },
        {
          "internalType": "uint256",
          "name": "tokenId",
          "type": "uint256"
        },
        {
          "internalType": "bytes",
          "name": "_data",
          "type": "bytes"
        }
      ],
      "name": "safeTransferFrom",
      "outputs": [],
      "stateMutability": "nonpayable",
      "type": "function"
    },
    {
      "inputs": [
        {
          "internalType": "address",
          "name": "operator",
          "type": "address"
        },
        {
          "internalType": "bool",
          "name": "approved",
          "type": "bool"
        }
      ],
      "name": "setApprovalForAll",
      "outputs": [],
      "stateMutability": "nonpayable",
      "type": "function"
    },
    {
      "inputs": [
        {
          "internalType": "bytes4",
          "name": "interfaceId",
          "type": "bytes4"
        }
      ],
      "name": "supportsInterface",
      "outputs": [
        {
          "internalType": "bool",
          "name": "",
          "type": "bool"
        }
      ],
      "stateMutability": "view",
      "type": "function",
      "constant": true
    },
    {
      "inputs": [],
      "name": "symbol",
      "outputs": [
        {
          "internalType": "string",
          "name": "",
          "type": "string"
        }
      ],
      "stateMutability": "view",
      "type": "function",
      "constant": true
    },
    {
      "inputs": [
        {
          "internalType": "uint256",
          "name": "tokenId",
          "type": "uint256"
        }
      ],
      "name": "tokenURI",
      "outputs": [
        {
          "internalType": "string",
          "name": "",
          "type": "string"
        }
      ],
      "stateMutability": "view",
      "type": "function",
      "constant": true
    },
    {
      "inputs": [
        {
          "internalType": "address",
          "name": "from",
          "type": "address"
        },
        {
          "internalType": "address",
          "name": "to",
          "type": "address"
        },
        {
          "internalType": "uint256",
          "name": "tokenId",
          "type": "uint256"
        }
      ],
      "name": "transferFrom",
      "outputs": [],
      "stateMutability": "nonpayable",
      "type": "function"
    },
    {
      "inputs": [
        {
          "internalType": "address",
          "name": "addr",
          "type": "address"
        },
        {
          "internalType": "uint256",
          "name": "i",
          "type": "uint256"
        }
      ],
      "name": "getNfts",
      "outputs": [
        {
          "components": [
            {
              "internalType": "uint256",
              "name": "id",
              "type": "uint256"
            },
            {
              "internalType": "string",
              "name": "name",
              "type": "string"
            },
            {
              "internalType": "string",
              "name": "imageUrl",
              "type": "string"
            },
            {
              "internalType": "uint256",
              "name": "date",
              "type": "uint256"
            },
            {
              "internalType": "address",
              "name": "owner",
              "type": "address"
            }
          ],
          "internalType": "struct NFT.Nft",
          "name": "",
          "type": "tuple"
        }
      ],
      "stateMutability": "view",
      "type": "function",
      "constant": true
    },
    {
      "inputs": [
        {
          "internalType": "address",
          "name": "to",
          "type": "address"
        },
        {
          "internalType": "string",
          "name": "name",
          "type": "string"
        },
        {
          "internalType": "string",
          "name": "imageUrl",
          "type": "string"
        }
      ],
      "name": "mint",
      "outputs": [],
      "stateMutability": "payable",
      "type": "function",
      "payable": true
    }
  ],
  "bytecode": "0x60806040523480156200001157600080fd5b506040518060400160405280600681526020017f4d79204e667400000000000000000000000000000000000000000000000000008152506040518060400160405280600381526020017f4e46540000000000000000000000000000000000000000000000000000000000815250816000908051906020019062000096929190620000f9565b508060019080519060200190620000af929190620000f9565b50505033600760006101000a81548173ffffffffffffffffffffffffffffffffffffffff021916908373ffffffffffffffffffffffffffffffffffffffff1602179055506200020e565b8280546200010790620001a9565b90600052602060002090601f0160209004810192826200012b576000855562000177565b82601f106200014657805160ff191683800117855562000177565b8280016001018555821562000177579182015b828111156200017657825182559160200191906001019062000159565b5b5090506200018691906200018a565b5090565b5b80821115620001a55760008160009055506001016200018b565b5090565b60006002820490506001821680620001c257607f821691505b60208210811415620001d957620001d8620001df565b5b50919050565b7f4e487b7100000000000000000000000000000000000000000000000000000000600052602260045260246000fd5b6131df806200021e6000396000f3fe6080604052600436106101095760003560e01c806375794a3c11610095578063b88d4fde11610064578063b88d4fde14610384578063c87b56dd146103ad578063d0f50a46146103ea578063e985e9c514610427578063f851a4401461046457610109565b806375794a3c146102e957806395d89b4114610314578063990711901461033f578063a22cb4651461035b57610109565b806323b872dd116100dc57806323b872dd146101dc57806342842e0e1461020557806343af356b1461022e5780636352211e1461026f57806370a08231146102ac57610109565b806301ffc9a71461010e57806306fdde031461014b578063081812fc14610176578063095ea7b3146101b3575b600080fd5b34801561011a57600080fd5b5061013560048036038101906101309190612231565b61048f565b6040516101429190612aa3565b60405180910390f35b34801561015757600080fd5b50610160610571565b60405161016d9190612abe565b60405180910390f35b34801561018257600080fd5b5061019d60048036038101906101989190612283565b610603565b6040516101aa9190612a3c565b60405180910390f35b3480156101bf57600080fd5b506101da60048036038101906101d591906121f5565b610688565b005b3480156101e857600080fd5b5061020360048036038101906101fe9190612070565b6107a0565b005b34801561021157600080fd5b5061022c60048036038101906102279190612070565b610800565b005b34801561023a57600080fd5b50610255600480360381019061025091906121f5565b610820565b604051610266959493929190612d1d565b60405180910390f35b34801561027b57600080fd5b5061029660048036038101906102919190612283565b610993565b6040516102a39190612a3c565b60405180910390f35b3480156102b857600080fd5b506102d360048036038101906102ce919061200b565b610a45565b6040516102e09190612d02565b60405180910390f35b3480156102f557600080fd5b506102fe610afd565b60405161030b9190612d02565b60405180910390f35b34801561032057600080fd5b50610329610b03565b6040516103369190612abe565b60405180910390f35b61035960048036038101906103549190612176565b610b95565b005b34801561036757600080fd5b50610382600480360381019061037d919061213a565b610dc6565b005b34801561039057600080fd5b506103ab60048036038101906103a691906120bf565b610f47565b005b3480156103b957600080fd5b506103d460048036038101906103cf9190612283565b610fa9565b6040516103e19190612abe565b60405180910390f35b3480156103f657600080fd5b50610411600480360381019061040c91906121f5565b611050565b60405161041e9190612ce0565b60405180910390f35b34801561043357600080fd5b5061044e60048036038101906104499190612034565b611249565b60405161045b9190612aa3565b60405180910390f35b34801561047057600080fd5b506104796112dd565b6040516104869190612a3c565b60405180910390f35b60007f80ac58cd000000000000000000000000000000000000000000000000000000007bffffffffffffffffffffffffffffffffffffffffffffffffffffffff1916827bffffffffffffffffffffffffffffffffffffffffffffffffffffffff1916148061055a57507f5b5e139f000000000000000000000000000000000000000000000000000000007bffffffffffffffffffffffffffffffffffffffffffffffffffffffff1916827bffffffffffffffffffffffffffffffffffffffffffffffffffffffff1916145b8061056a575061056982611303565b5b9050919050565b60606000805461058090612fd4565b80601f01602080910402602001604051908101604052809291908181526020018280546105ac90612fd4565b80156105f95780601f106105ce576101008083540402835291602001916105f9565b820191906000526020600020905b8154815290600101906020018083116105dc57829003601f168201915b5050505050905090565b600061060e8261136d565b61064d576040517f08c379a000000000000000000000000000000000000000000000000000000000815260040161064490612c40565b60405180910390fd5b6004600083815260200190815260200160002060009054906101000a900473ffffffffffffffffffffffffffffffffffffffff169050919050565b600061069382610993565b90508073ffffffffffffffffffffffffffffffffffffffff168373ffffffffffffffffffffffffffffffffffffffff161415610704576040517f08c379a00000000000000000000000000000000000000000000000000000000081526004016106fb90612ca0565b60405180910390fd5b8073ffffffffffffffffffffffffffffffffffffffff166107236113d9565b73ffffffffffffffffffffffffffffffffffffffff16148061075257506107518161074c6113d9565b611249565b5b610791576040517f08c379a000000000000000000000000000000000000000000000000000000000815260040161078890612ba0565b60405180910390fd5b61079b83836113e1565b505050565b6107b16107ab6113d9565b8261149a565b6107f0576040517f08c379a00000000000000000000000000000000000000000000000000000000081526004016107e790612cc0565b60405180910390fd5b6107fb838383611578565b505050565b61081b83838360405180602001604052806000815250610f47565b505050565b60086020528160005260406000206020528060005260406000206000915091505080600001549080600101805461085690612fd4565b80601f016020809104026020016040519081016040528092919081815260200182805461088290612fd4565b80156108cf5780601f106108a4576101008083540402835291602001916108cf565b820191906000526020600020905b8154815290600101906020018083116108b257829003601f168201915b5050505050908060020180546108e490612fd4565b80601f016020809104026020016040519081016040528092919081815260200182805461091090612fd4565b801561095d5780601f106109325761010080835404028352916020019161095d565b820191906000526020600020905b81548152906001019060200180831161094057829003601f168201915b5050505050908060030154908060040160009054906101000a900473ffffffffffffffffffffffffffffffffffffffff16905085565b6000806002600084815260200190815260200160002060009054906101000a900473ffffffffffffffffffffffffffffffffffffffff169050600073ffffffffffffffffffffffffffffffffffffffff168173ffffffffffffffffffffffffffffffffffffffff161415610a3c576040517f08c379a0000000000000000000000000000000000000000000000000000000008152600401610a3390612be0565b60405180910390fd5b80915050919050565b60008073ffffffffffffffffffffffffffffffffffffffff168273ffffffffffffffffffffffffffffffffffffffff161415610ab6576040517f08c379a0000000000000000000000000000000000000000000000000000000008152600401610aad90612bc0565b60405180910390fd5b600360008373ffffffffffffffffffffffffffffffffffffffff1673ffffffffffffffffffffffffffffffffffffffff168152602001908152602001600020549050919050565b60065481565b606060018054610b1290612fd4565b80601f0160208091040260200160405190810160405280929190818152602001828054610b3e90612fd4565b8015610b8b5780601f10610b6057610100808354040283529160200191610b8b565b820191906000526020600020905b815481529060010190602001808311610b6e57829003601f168201915b5050505050905090565b600760009054906101000a900473ffffffffffffffffffffffffffffffffffffffff1673ffffffffffffffffffffffffffffffffffffffff163373ffffffffffffffffffffffffffffffffffffffff1614610c25576040517f08c379a0000000000000000000000000000000000000000000000000000000008152600401610c1c90612ae0565b60405180910390fd5b662386f26fc100003414610c6e576040517f08c379a0000000000000000000000000000000000000000000000000000000008152600401610c6590612c00565b60405180910390fd5b610c7a836006546117d4565b60006040518060a0016040528060065481526020018481526020018381526020014281526020018573ffffffffffffffffffffffffffffffffffffffff16815250905080600860008673ffffffffffffffffffffffffffffffffffffffff1673ffffffffffffffffffffffffffffffffffffffff16815260200190815260200160002060006006548152602001908152602001600020600082015181600001556020820151816001019080519060200190610d36929190611dea565b506040820151816002019080519060200190610d53929190611dea565b506060820151816003015560808201518160040160006101000a81548173ffffffffffffffffffffffffffffffffffffffff021916908373ffffffffffffffffffffffffffffffffffffffff16021790555090505060066000815480929190610dbb90613006565b919050555050505050565b610dce6113d9565b73ffffffffffffffffffffffffffffffffffffffff168273ffffffffffffffffffffffffffffffffffffffff161415610e3c576040517f08c379a0000000000000000000000000000000000000000000000000000000008152600401610e3390612b60565b60405180910390fd5b8060056000610e496113d9565b73ffffffffffffffffffffffffffffffffffffffff1673ffffffffffffffffffffffffffffffffffffffff16815260200190815260200160002060008473ffffffffffffffffffffffffffffffffffffffff1673ffffffffffffffffffffffffffffffffffffffff16815260200190815260200160002060006101000a81548160ff0219169083151502179055508173ffffffffffffffffffffffffffffffffffffffff16610ef66113d9565b73ffffffffffffffffffffffffffffffffffffffff167f17307eab39ab6107e8899845ad3d59bd9653f200f220920489ca2b5937696c3183604051610f3b9190612aa3565b60405180910390a35050565b610f58610f526113d9565b8361149a565b610f97576040517f08c379a0000000000000000000000000000000000000000000000000000000008152600401610f8e90612cc0565b60405180910390fd5b610fa3848484846117f2565b50505050565b6060610fb48261136d565b610ff3576040517f08c379a0000000000000000000000000000000000000000000000000000000008152600401610fea90612c80565b60405180910390fd5b6000610ffd61184e565b9050600081511161101d5760405180602001604052806000815250611048565b8061102784611865565b604051602001611038929190612a18565b6040516020818303038152906040525b915050919050565b611058611e70565b600860008473ffffffffffffffffffffffffffffffffffffffff1673ffffffffffffffffffffffffffffffffffffffff16815260200190815260200160002060008381526020019081526020016000206040518060a0016040529081600082015481526020016001820180546110cd90612fd4565b80601f01602080910402602001604051908101604052809291908181526020018280546110f990612fd4565b80156111465780601f1061111b57610100808354040283529160200191611146565b820191906000526020600020905b81548152906001019060200180831161112957829003601f168201915b5050505050815260200160028201805461115f90612fd4565b80601f016020809104026020016040519081016040528092919081815260200182805461118b90612fd4565b80156111d85780601f106111ad576101008083540402835291602001916111d8565b820191906000526020600020905b8154815290600101906020018083116111bb57829003601f168201915b50505050508152602001600382015481526020016004820160009054906101000a900473ffffffffffffffffffffffffffffffffffffffff1673ffffffffffffffffffffffffffffffffffffffff1673ffffffffffffffffffffffffffffffffffffffff1681525050905092915050565b6000600560008473ffffffffffffffffffffffffffffffffffffffff1673ffffffffffffffffffffffffffffffffffffffff16815260200190815260200160002060008373ffffffffffffffffffffffffffffffffffffffff1673ffffffffffffffffffffffffffffffffffffffff16815260200190815260200160002060009054906101000a900460ff16905092915050565b600760009054906101000a900473ffffffffffffffffffffffffffffffffffffffff1681565b60007f01ffc9a7000000000000000000000000000000000000000000000000000000007bffffffffffffffffffffffffffffffffffffffffffffffffffffffff1916827bffffffffffffffffffffffffffffffffffffffffffffffffffffffff1916149050919050565b60008073ffffffffffffffffffffffffffffffffffffffff166002600084815260200190815260200160002060009054906101000a900473ffffffffffffffffffffffffffffffffffffffff1673ffffffffffffffffffffffffffffffffffffffff1614159050919050565b600033905090565b816004600083815260200190815260200160002060006101000a81548173ffffffffffffffffffffffffffffffffffffffff021916908373ffffffffffffffffffffffffffffffffffffffff160217905550808273ffffffffffffffffffffffffffffffffffffffff1661145483610993565b73ffffffffffffffffffffffffffffffffffffffff167f8c5be1e5ebec7d5bd14f71427d1e84f3dd0314c0f7b2291e5b200ac8c7c3b92560405160405180910390a45050565b60006114a58261136d565b6114e4576040517f08c379a00000000000000000000000000000000000000000000000000000000081526004016114db90612b80565b60405180910390fd5b60006114ef83610993565b90508073ffffffffffffffffffffffffffffffffffffffff168473ffffffffffffffffffffffffffffffffffffffff16148061155e57508373ffffffffffffffffffffffffffffffffffffffff1661154684610603565b73ffffffffffffffffffffffffffffffffffffffff16145b8061156f575061156e8185611249565b5b91505092915050565b8273ffffffffffffffffffffffffffffffffffffffff1661159882610993565b73ffffffffffffffffffffffffffffffffffffffff16146115ee576040517f08c379a00000000000000000000000000000000000000000000000000000000081526004016115e590612c60565b60405180910390fd5b600073ffffffffffffffffffffffffffffffffffffffff168273ffffffffffffffffffffffffffffffffffffffff16141561165e576040517f08c379a000000000000000000000000000000000000000000000000000000000815260040161165590612b40565b60405180910390fd5b611669838383611a12565b6116746000826113e1565b6001600360008573ffffffffffffffffffffffffffffffffffffffff1673ffffffffffffffffffffffffffffffffffffffff16815260200190815260200160002060008282546116c49190612eea565b925050819055506001600360008473ffffffffffffffffffffffffffffffffffffffff1673ffffffffffffffffffffffffffffffffffffffff168152602001908152602001600020600082825461171b9190612e63565b92505081905550816002600083815260200190815260200160002060006101000a81548173ffffffffffffffffffffffffffffffffffffffff021916908373ffffffffffffffffffffffffffffffffffffffff160217905550808273ffffffffffffffffffffffffffffffffffffffff168473ffffffffffffffffffffffffffffffffffffffff167fddf252ad1be2c89b69c2b068fc378daa952ba7f163c4a11628f55a4df523b3ef60405160405180910390a4505050565b6117ee828260405180602001604052806000815250611a17565b5050565b6117fd848484611578565b61180984848484611a72565b611848576040517f08c379a000000000000000000000000000000000000000000000000000000000815260040161183f90612b00565b60405180910390fd5b50505050565b606060405180602001604052806000815250905090565b606060008214156118ad576040518060400160405280600181526020017f30000000000000000000000000000000000000000000000000000000000000008152509050611a0d565b600082905060005b600082146118df5780806118c890613006565b915050600a826118d89190612eb9565b91506118b5565b60008167ffffffffffffffff811115611921577f4e487b7100000000000000000000000000000000000000000000000000000000600052604160045260246000fd5b6040519080825280601f01601f1916602001820160405280156119535781602001600182028036833780820191505090505b5090505b60008514611a065760018261196c9190612eea565b9150600a8561197b919061304f565b60306119879190612e63565b60f81b8183815181106119c3577f4e487b7100000000000000000000000000000000000000000000000000000000600052603260045260246000fd5b60200101907effffffffffffffffffffffffffffffffffffffffffffffffffffffffffffff1916908160001a905350600a856119ff9190612eb9565b9450611957565b8093505050505b919050565b505050565b611a218383611c09565b611a2e6000848484611a72565b611a6d576040517f08c379a0000000000000000000000000000000000000000000000000000000008152600401611a6490612b00565b60405180910390fd5b505050565b6000611a938473ffffffffffffffffffffffffffffffffffffffff16611dd7565b15611bfc578373ffffffffffffffffffffffffffffffffffffffff1663150b7a02611abc6113d9565b8786866040518563ffffffff1660e01b8152600401611ade9493929190612a57565b602060405180830381600087803b158015611af857600080fd5b505af1925050508015611b2957506040513d601f19601f82011682018060405250810190611b26919061225a565b60015b611bac573d8060008114611b59576040519150601f19603f3d011682016040523d82523d6000602084013e611b5e565b606091505b50600081511415611ba4576040517f08c379a0000000000000000000000000000000000000000000000000000000008152600401611b9b90612b00565b60405180910390fd5b805181602001fd5b63150b7a0260e01b7bffffffffffffffffffffffffffffffffffffffffffffffffffffffff1916817bffffffffffffffffffffffffffffffffffffffffffffffffffffffff191614915050611c01565b600190505b949350505050565b600073ffffffffffffffffffffffffffffffffffffffff168273ffffffffffffffffffffffffffffffffffffffff161415611c79576040517f08c379a0000000000000000000000000000000000000000000000000000000008152600401611c7090612c20565b60405180910390fd5b611c828161136d565b15611cc2576040517f08c379a0000000000000000000000000000000000000000000000000000000008152600401611cb990612b20565b60405180910390fd5b611cce60008383611a12565b6001600360008473ffffffffffffffffffffffffffffffffffffffff1673ffffffffffffffffffffffffffffffffffffffff1681526020019081526020016000206000828254611d1e9190612e63565b92505081905550816002600083815260200190815260200160002060006101000a81548173ffffffffffffffffffffffffffffffffffffffff021916908373ffffffffffffffffffffffffffffffffffffffff160217905550808273ffffffffffffffffffffffffffffffffffffffff16600073ffffffffffffffffffffffffffffffffffffffff167fddf252ad1be2c89b69c2b068fc378daa952ba7f163c4a11628f55a4df523b3ef60405160405180910390a45050565b600080823b905060008111915050919050565b828054611df690612fd4565b90600052602060002090601f016020900481019282611e185760008555611e5f565b82601f10611e3157805160ff1916838001178555611e5f565b82800160010185558215611e5f579182015b82811115611e5e578251825591602001919060010190611e43565b5b509050611e6c9190611eb5565b5090565b6040518060a0016040528060008152602001606081526020016060815260200160008152602001600073ffffffffffffffffffffffffffffffffffffffff1681525090565b5b80821115611ece576000816000905550600101611eb6565b5090565b6000611ee5611ee084612daf565b612d7e565b905082815260208101848484011115611efd57600080fd5b611f08848285612f92565b509392505050565b6000611f23611f1e84612ddf565b612d7e565b905082815260208101848484011115611f3b57600080fd5b611f46848285612f92565b509392505050565b600081359050611f5d8161314d565b92915050565b600081359050611f7281613164565b92915050565b600081359050611f878161317b565b92915050565b600081519050611f9c8161317b565b92915050565b600082601f830112611fb357600080fd5b8135611fc3848260208601611ed2565b91505092915050565b600082601f830112611fdd57600080fd5b8135611fed848260208601611f10565b91505092915050565b60008135905061200581613192565b92915050565b60006020828403121561201d57600080fd5b600061202b84828501611f4e565b91505092915050565b6000806040838503121561204757600080fd5b600061205585828601611f4e565b925050602061206685828601611f4e565b9150509250929050565b60008060006060848603121561208557600080fd5b600061209386828701611f4e565b93505060206120a486828701611f4e565b92505060406120b586828701611ff6565b9150509250925092565b600080600080608085870312156120d557600080fd5b60006120e387828801611f4e565b94505060206120f487828801611f4e565b935050604061210587828801611ff6565b925050606085013567ffffffffffffffff81111561212257600080fd5b61212e87828801611fa2565b91505092959194509250565b6000806040838503121561214d57600080fd5b600061215b85828601611f4e565b925050602061216c85828601611f63565b9150509250929050565b60008060006060848603121561218b57600080fd5b600061219986828701611f4e565b935050602084013567ffffffffffffffff8111156121b657600080fd5b6121c286828701611fcc565b925050604084013567ffffffffffffffff8111156121df57600080fd5b6121eb86828701611fcc565b9150509250925092565b6000806040838503121561220857600080fd5b600061221685828601611f4e565b925050602061222785828601611ff6565b9150509250929050565b60006020828403121561224357600080fd5b600061225184828501611f78565b91505092915050565b60006020828403121561226c57600080fd5b600061227a84828501611f8d565b91505092915050565b60006020828403121561229557600080fd5b60006122a384828501611ff6565b91505092915050565b6122b581612f1e565b82525050565b6122c481612f1e565b82525050565b6122d381612f30565b82525050565b60006122e482612e0f565b6122ee8185612e25565b93506122fe818560208601612fa1565b6123078161313c565b840191505092915050565b600061231d82612e1a565b6123278185612e36565b9350612337818560208601612fa1565b6123408161313c565b840191505092915050565b600061235682612e1a565b6123608185612e47565b9350612370818560208601612fa1565b6123798161313c565b840191505092915050565b600061238f82612e1a565b6123998185612e58565b93506123a9818560208601612fa1565b80840191505092915050565b60006123c2600d83612e47565b91507f6d7573742062652061646d696e000000000000000000000000000000000000006000830152602082019050919050565b6000612402603283612e47565b91507f4552433732313a207472616e7366657220746f206e6f6e20455243373231526560008301527f63656976657220696d706c656d656e74657200000000000000000000000000006020830152604082019050919050565b6000612468601c83612e47565b91507f4552433732313a20746f6b656e20616c7265616479206d696e746564000000006000830152602082019050919050565b60006124a8602483612e47565b91507f4552433732313a207472616e7366657220746f20746865207a65726f2061646460008301527f72657373000000000000000000000000000000000000000000000000000000006020830152604082019050919050565b600061250e601983612e47565b91507f4552433732313a20617070726f766520746f2063616c6c6572000000000000006000830152602082019050919050565b600061254e602c83612e47565b91507f4552433732313a206f70657261746f7220717565727920666f72206e6f6e657860008301527f697374656e7420746f6b656e00000000000000000000000000000000000000006020830152604082019050919050565b60006125b4603883612e47565b91507f4552433732313a20617070726f76652063616c6c6572206973206e6f74206f7760008301527f6e6572206e6f7220617070726f76656420666f7220616c6c00000000000000006020830152604082019050919050565b600061261a602a83612e47565b91507f4552433732313a2062616c616e636520717565727920666f7220746865207a6560008301527f726f2061646472657373000000000000000000000000000000000000000000006020830152604082019050919050565b6000612680602983612e47565b91507f4552433732313a206f776e657220717565727920666f72206e6f6e657869737460008301527f656e7420746f6b656e00000000000000000000000000000000000000000000006020830152604082019050919050565b60006126e6602183612e47565b91507f56616c7565206d75737420626520657175616c20746f20302e3031206574686560008301527f72000000000000000000000000000000000000000000000000000000000000006020830152604082019050919050565b600061274c602083612e47565b91507f4552433732313a206d696e7420746f20746865207a65726f20616464726573736000830152602082019050919050565b600061278c602c83612e47565b91507f4552433732313a20617070726f76656420717565727920666f72206e6f6e657860008301527f697374656e7420746f6b656e00000000000000000000000000000000000000006020830152604082019050919050565b60006127f2602983612e47565b91507f4552433732313a207472616e73666572206f6620746f6b656e2074686174206960008301527f73206e6f74206f776e00000000000000000000000000000000000000000000006020830152604082019050919050565b6000612858602f83612e47565b91507f4552433732314d657461646174613a2055524920717565727920666f72206e6f60008301527f6e6578697374656e7420746f6b656e00000000000000000000000000000000006020830152604082019050919050565b60006128be602183612e47565b91507f4552433732313a20617070726f76616c20746f2063757272656e74206f776e6560008301527f72000000000000000000000000000000000000000000000000000000000000006020830152604082019050919050565b6000612924603183612e47565b91507f4552433732313a207472616e736665722063616c6c6572206973206e6f74206f60008301527f776e6572206e6f7220617070726f7665640000000000000000000000000000006020830152604082019050919050565b600060a08301600083015161299560008601826129fa565b50602083015184820360208601526129ad8282612312565b915050604083015184820360408601526129c78282612312565b91505060608301516129dc60608601826129fa565b5060808301516129ef60808601826122ac565b508091505092915050565b612a0381612f88565b82525050565b612a1281612f88565b82525050565b6000612a248285612384565b9150612a308284612384565b91508190509392505050565b6000602082019050612a5160008301846122bb565b92915050565b6000608082019050612a6c60008301876122bb565b612a7960208301866122bb565b612a866040830185612a09565b8181036060830152612a9881846122d9565b905095945050505050565b6000602082019050612ab860008301846122ca565b92915050565b60006020820190508181036000830152612ad8818461234b565b905092915050565b60006020820190508181036000830152612af9816123b5565b9050919050565b60006020820190508181036000830152612b19816123f5565b9050919050565b60006020820190508181036000830152612b398161245b565b9050919050565b60006020820190508181036000830152612b598161249b565b9050919050565b60006020820190508181036000830152612b7981612501565b9050919050565b60006020820190508181036000830152612b9981612541565b9050919050565b60006020820190508181036000830152612bb9816125a7565b9050919050565b60006020820190508181036000830152612bd98161260d565b9050919050565b60006020820190508181036000830152612bf981612673565b9050919050565b60006020820190508181036000830152612c19816126d9565b9050919050565b60006020820190508181036000830152612c398161273f565b9050919050565b60006020820190508181036000830152612c598161277f565b9050919050565b60006020820190508181036000830152612c79816127e5565b9050919050565b60006020820190508181036000830152612c998161284b565b9050919050565b60006020820190508181036000830152612cb9816128b1565b9050919050565b60006020820190508181036000830152612cd981612917565b9050919050565b60006020820190508181036000830152612cfa818461297d565b905092915050565b6000602082019050612d176000830184612a09565b92915050565b600060a082019050612d326000830188612a09565b8181036020830152612d44818761234b565b90508181036040830152612d58818661234b565b9050612d676060830185612a09565b612d7460808301846122bb565b9695505050505050565b6000604051905081810181811067ffffffffffffffff82111715612da557612da461310d565b5b8060405250919050565b600067ffffffffffffffff821115612dca57612dc961310d565b5b601f19601f8301169050602081019050919050565b600067ffffffffffffffff821115612dfa57612df961310d565b5b601f19601f8301169050602081019050919050565b600081519050919050565b600081519050919050565b600082825260208201905092915050565b600082825260208201905092915050565b600082825260208201905092915050565b600081905092915050565b6000612e6e82612f88565b9150612e7983612f88565b9250827fffffffffffffffffffffffffffffffffffffffffffffffffffffffffffffffff03821115612eae57612ead613080565b5b828201905092915050565b6000612ec482612f88565b9150612ecf83612f88565b925082612edf57612ede6130af565b5b828204905092915050565b6000612ef582612f88565b9150612f0083612f88565b925082821015612f1357612f12613080565b5b828203905092915050565b6000612f2982612f68565b9050919050565b60008115159050919050565b60007fffffffff0000000000000000000000000000000000000000000000000000000082169050919050565b600073ffffffffffffffffffffffffffffffffffffffff82169050919050565b6000819050919050565b82818337600083830152505050565b60005b83811015612fbf578082015181840152602081019050612fa4565b83811115612fce576000848401525b50505050565b60006002820490506001821680612fec57607f821691505b6020821081141561300057612fff6130de565b5b50919050565b600061301182612f88565b91507fffffffffffffffffffffffffffffffffffffffffffffffffffffffffffffffff82141561304457613043613080565b5b600182019050919050565b600061305a82612f88565b915061306583612f88565b925082613075576130746130af565b5b828206905092915050565b7f4e487b7100000000000000000000000000000000000000000000000000000000600052601160045260246000fd5b7f4e487b7100000000000000000000000000000000000000000000000000000000600052601260045260246000fd5b7f4e487b7100000000000000000000000000000000000000000000000000000000600052602260045260246000fd5b7f4e487b7100000000000000000000000000000000000000000000000000000000600052604160045260246000fd5b6000601f19601f8301169050919050565b61315681612f1e565b811461316157600080fd5b50565b61316d81612f30565b811461317857600080fd5b50565b61318481612f3c565b811461318f57600080fd5b50565b61319b81612f88565b81146131a657600080fd5b5056fea26469706673582212204ae6806b147a41a66d26b1148169f3c8a0db955e66a3ccdc1941188cb0c4c2e164736f6c63430008000033",
  "immutableReferences": {},
  "source": "// SPDX-License-Identifier: MIT\npragma solidity >=0.7.0 <0.9.0;\n\nimport \"../node_modules/@openzeppelin/contracts/token/ERC721/ERC721.sol\";\n\ncontract NFT is ERC721 {\n    uint256 public nextTokenId;\n    address public admin;\n\n    struct Nft {\n        uint256 id;\n        string name;\n        string imageUrl;\n        uint256 date;\n        address owner;\n    }\n\n    mapping(address => mapping(uint256 => Nft)) public nfts;\n\n    constructor() ERC721(\"My Nft\", \"NFT\") {\n        admin = msg.sender;\n    }\n\n    function getNfts(address addr, uint256 i)\n        external\n        view\n        returns (Nft memory)\n    {\n        return nfts[addr][i];\n    }\n\n    function mint(\n        address to,\n        string memory name,\n        string memory imageUrl\n    ) external payable {\n        require(msg.sender == admin, \"must be admin\");\n        require(msg.value == 0.01 ether, \"Value must be equal to 0.01 ether\");\n        _safeMint(to, nextTokenId);\n\n        Nft memory n = Nft({\n            id: nextTokenId,\n            name: name,\n            imageUrl: imageUrl,\n            date: block.timestamp,\n            owner: to\n        });\n\n        nfts[to][nextTokenId] = n;\n\n        nextTokenId++;\n    }\n\n    function _baseURI() internal pure override returns (string memory) {\n        return \"\";\n    }\n}\n",
  "sourcePath": "/Volumes/APPLE HDD/reactprojects/nft3/contracts/NFT.sol",
  "compiler": {
    "name": "solc",
    "version": "0.8.0+commit.c7dfd78e.Emscripten.clang"
  },
  "schemaVersion": "3.4.3",
  "updatedAt": "2021-09-06T11:27:50.754Z",
  "networkType": "ethereum",
  "devdoc": {
    "kind": "dev",
    "methods": {
      "approve(address,uint256)": {
        "details": "See {IERC721-approve}."
      },
      "balanceOf(address)": {
        "details": "See {IERC721-balanceOf}."
      },
      "getApproved(uint256)": {
        "details": "See {IERC721-getApproved}."
      },
      "isApprovedForAll(address,address)": {
        "details": "See {IERC721-isApprovedForAll}."
      },
      "name()": {
        "details": "See {IERC721Metadata-name}."
      },
      "ownerOf(uint256)": {
        "details": "See {IERC721-ownerOf}."
      },
      "safeTransferFrom(address,address,uint256)": {
        "details": "See {IERC721-safeTransferFrom}."
      },
      "safeTransferFrom(address,address,uint256,bytes)": {
        "details": "See {IERC721-safeTransferFrom}."
      },
      "setApprovalForAll(address,bool)": {
        "details": "See {IERC721-setApprovalForAll}."
      },
      "supportsInterface(bytes4)": {
        "details": "See {IERC165-supportsInterface}."
      },
      "symbol()": {
        "details": "See {IERC721Metadata-symbol}."
      },
      "tokenURI(uint256)": {
        "details": "See {IERC721Metadata-tokenURI}."
      },
      "transferFrom(address,address,uint256)": {
        "details": "See {IERC721-transferFrom}."
      }
    },
    "version": 1
  },
  "userdoc": {
    "kind": "user",
    "methods": {},
    "version": 1
  }
}