{
  "contractName": "NFT",
  "abi": [
    {
      "inputs": [],
      "stateMutability": "nonpayable",
      "type": "constructor"
    },
    {
      "anonymous": false,
      "inputs": [
        {
          "indexed": true,
          "internalType": "address",
          "name": "owner",
          "type": "address"
        },
        {
          "indexed": true,
          "internalType": "address",
          "name": "approved",
          "type": "address"
        },
        {
          "indexed": true,
          "internalType": "uint256",
          "name": "tokenId",
          "type": "uint256"
        }
      ],
      "name": "Approval",
      "type": "event"
    },
    {
      "anonymous": false,
      "inputs": [
        {
          "indexed": true,
          "internalType": "address",
          "name": "owner",
          "type": "address"
        },
        {
          "indexed": true,
          "internalType": "address",
          "name": "operator",
          "type": "address"
        },
        {
          "indexed": false,
          "internalType": "bool",
          "name": "approved",
          "type": "bool"
        }
      ],
      "name": "ApprovalForAll",
      "type": "event"
    },
    {
      "anonymous": false,
      "inputs": [
        {
          "indexed": true,
          "internalType": "address",
          "name": "from",
          "type": "address"
        },
        {
          "indexed": true,
          "internalType": "address",
          "name": "to",
          "type": "address"
        },
        {
          "indexed": true,
          "internalType": "uint256",
          "name": "tokenId",
          "type": "uint256"
        }
      ],
      "name": "Transfer",
      "type": "event"
    },
    {
      "inputs": [],
      "name": "admin",
      "outputs": [
        {
          "internalType": "address",
          "name": "",
          "type": "address"
        }
      ],
      "stateMutability": "view",
      "type": "function",
      "constant": true
    },
    {
      "inputs": [
        {
          "internalType": "address",
          "name": "to",
          "type": "address"
        },
        {
          "internalType": "uint256",
          "name": "tokenId",
          "type": "uint256"
        }
      ],
      "name": "approve",
      "outputs": [],
      "stateMutability": "nonpayable",
      "type": "function"
    },
    {
      "inputs": [
        {
          "internalType": "address",
          "name": "owner",
          "type": "address"
        }
      ],
      "name": "balanceOf",
      "outputs": [
        {
          "internalType": "uint256",
          "name": "",
          "type": "uint256"
        }
      ],
      "stateMutability": "view",
      "type": "function",
      "constant": true
    },
    {
      "inputs": [
        {
          "internalType": "uint256",
          "name": "tokenId",
          "type": "uint256"
        }
      ],
      "name": "getApproved",
      "outputs": [
        {
          "internalType": "address",
          "name": "",
          "type": "address"
        }
      ],
      "stateMutability": "view",
      "type": "function",
      "constant": true
    },
    {
      "inputs": [
        {
          "internalType": "address",
          "name": "owner",
          "type": "address"
        },
        {
          "internalType": "address",
          "name": "operator",
          "type": "address"
        }
      ],
      "name": "isApprovedForAll",
      "outputs": [
        {
          "internalType": "bool",
          "name": "",
          "type": "bool"
        }
      ],
      "stateMutability": "view",
      "type": "function",
      "constant": true
    },
    {
      "inputs": [],
      "name": "name",
      "outputs": [
        {
          "internalType": "string",
          "name": "",
          "type": "string"
        }
      ],
      "stateMutability": "view",
      "type": "function",
      "constant": true
    },
    {
      "inputs": [],
      "name": "nextTokenId",
      "outputs": [
        {
          "internalType": "uint256",
          "name": "",
          "type": "uint256"
        }
      ],
      "stateMutability": "view",
      "type": "function",
      "constant": true
    },
    {
      "inputs": [
        {
          "internalType": "uint256",
          "name": "tokenId",
          "type": "uint256"
        }
      ],
      "name": "ownerOf",
      "outputs": [
        {
          "internalType": "address",
          "name": "",
          "type": "address"
        }
      ],
      "stateMutability": "view",
      "type": "function",
      "constant": true
    },
    {
      "inputs": [
        {
          "internalType": "address",
          "name": "from",
          "type": "address"
        },
        {
          "internalType": "address",
          "name": "to",
          "type": "address"
        },
        {
          "internalType": "uint256",
          "name": "tokenId",
          "type": "uint256"
        }
      ],
      "name": "safeTransferFrom",
      "outputs": [],
      "stateMutability": "nonpayable",
      "type": "function"
    },
    {
      "inputs": [
        {
          "internalType": "address",
          "name": "from",
          "type": "address"
        },
        {
          "internalType": "address",
          "name": "to",
          "type": "address"
        },
        {
          "internalType": "uint256",
          "name": "tokenId",
          "type": "uint256"
        },
        {
          "internalType": "bytes",
          "name": "_data",
          "type": "bytes"
        }
      ],
      "name": "safeTransferFrom",
      "outputs": [],
      "stateMutability": "nonpayable",
      "type": "function"
    },
    {
      "inputs": [
        {
          "internalType": "address",
          "name": "operator",
          "type": "address"
        },
        {
          "internalType": "bool",
          "name": "approved",
          "type": "bool"
        }
      ],
      "name": "setApprovalForAll",
      "outputs": [],
      "stateMutability": "nonpayable",
      "type": "function"
    },
    {
      "inputs": [
        {
          "internalType": "bytes4",
          "name": "interfaceId",
          "type": "bytes4"
        }
      ],
      "name": "supportsInterface",
      "outputs": [
        {
          "internalType": "bool",
          "name": "",
          "type": "bool"
        }
      ],
      "stateMutability": "view",
      "type": "function",
      "constant": true
    },
    {
      "inputs": [],
      "name": "symbol",
      "outputs": [
        {
          "internalType": "string",
          "name": "",
          "type": "string"
        }
      ],
      "stateMutability": "view",
      "type": "function",
      "constant": true
    },
    {
      "inputs": [
        {
          "internalType": "uint256",
          "name": "tokenId",
          "type": "uint256"
        }
      ],
      "name": "tokenURI",
      "outputs": [
        {
          "internalType": "string",
          "name": "",
          "type": "string"
        }
      ],
      "stateMutability": "view",
      "type": "function",
      "constant": true
    },
    {
      "inputs": [
        {
          "internalType": "address",
          "name": "from",
          "type": "address"
        },
        {
          "internalType": "address",
          "name": "to",
          "type": "address"
        },
        {
          "internalType": "uint256",
          "name": "tokenId",
          "type": "uint256"
        }
      ],
      "name": "transferFrom",
      "outputs": [],
      "stateMutability": "nonpayable",
      "type": "function"
    },
    {
      "inputs": [
        {
          "internalType": "address",
          "name": "to",
          "type": "address"
        },
        {
          "internalType": "string",
          "name": "name",
          "type": "string"
        },
        {
          "internalType": "string",
          "name": "imageUrl",
          "type": "string"
        }
      ],
      "name": "mint",
      "outputs": [],
      "stateMutability": "payable",
      "type": "function",
      "payable": true
    }
  ],
  "bytecode": "0x60806040523480156200001157600080fd5b506040518060400160405280600681526020017f4d79204e667400000000000000000000000000000000000000000000000000008152506040518060400160405280600381526020017f4e46540000000000000000000000000000000000000000000000000000000000815250816000908051906020019062000096929190620000f9565b508060019080519060200190620000af929190620000f9565b50505033600760006101000a81548173ffffffffffffffffffffffffffffffffffffffff021916908373ffffffffffffffffffffffffffffffffffffffff1602179055506200020e565b8280546200010790620001a9565b90600052602060002090601f0160209004810192826200012b576000855562000177565b82601f106200014657805160ff191683800117855562000177565b8280016001018555821562000177579182015b828111156200017657825182559160200191906001019062000159565b5b5090506200018691906200018a565b5090565b5b80821115620001a55760008160009055506001016200018b565b5090565b60006002820490506001821680620001c257607f821691505b60208210811415620001d957620001d8620001df565b5b50919050565b7f4e487b7100000000000000000000000000000000000000000000000000000000600052602260045260246000fd5b612c32806200021e6000396000f3fe6080604052600436106100f35760003560e01c806375794a3c1161008a578063b88d4fde11610059578063b88d4fde1461032d578063c87b56dd14610356578063e985e9c514610393578063f851a440146103d0576100f3565b806375794a3c1461029257806395d89b41146102bd57806399071190146102e8578063a22cb46514610304576100f3565b806323b872dd116100c657806323b872dd146101c657806342842e0e146101ef5780636352211e1461021857806370a0823114610255576100f3565b806301ffc9a7146100f857806306fdde0314610135578063081812fc14610160578063095ea7b31461019d575b600080fd5b34801561010457600080fd5b5061011f600480360381019061011a9190611dec565b6103fb565b60405161012c919061258a565b60405180910390f35b34801561014157600080fd5b5061014a6104dd565b60405161015791906125a5565b60405180910390f35b34801561016c57600080fd5b5061018760048036038101906101829190611e3e565b61056f565b6040516101949190612523565b60405180910390f35b3480156101a957600080fd5b506101c460048036038101906101bf9190611db0565b6105f4565b005b3480156101d257600080fd5b506101ed60048036038101906101e89190611c2b565b61070c565b005b3480156101fb57600080fd5b5061021660048036038101906102119190611c2b565b61076c565b005b34801561022457600080fd5b5061023f600480360381019061023a9190611e3e565b61078c565b60405161024c9190612523565b60405180910390f35b34801561026157600080fd5b5061027c60048036038101906102779190611bc6565b61083e565b60405161028991906127c7565b60405180910390f35b34801561029e57600080fd5b506102a76108f6565b6040516102b491906127c7565b60405180910390f35b3480156102c957600080fd5b506102d26108fc565b6040516102df91906125a5565b60405180910390f35b61030260048036038101906102fd9190611d31565b61098e565b005b34801561031057600080fd5b5061032b60048036038101906103269190611cf5565b610bbf565b005b34801561033957600080fd5b50610354600480360381019061034f9190611c7a565b610d40565b005b34801561036257600080fd5b5061037d60048036038101906103789190611e3e565b610da2565b60405161038a91906125a5565b60405180910390f35b34801561039f57600080fd5b506103ba60048036038101906103b59190611bef565b610e49565b6040516103c7919061258a565b60405180910390f35b3480156103dc57600080fd5b506103e5610edd565b6040516103f29190612523565b60405180910390f35b60007f80ac58cd000000000000000000000000000000000000000000000000000000007bffffffffffffffffffffffffffffffffffffffffffffffffffffffff1916827bffffffffffffffffffffffffffffffffffffffffffffffffffffffff191614806104c657507f5b5e139f000000000000000000000000000000000000000000000000000000007bffffffffffffffffffffffffffffffffffffffffffffffffffffffff1916827bffffffffffffffffffffffffffffffffffffffffffffffffffffffff1916145b806104d657506104d582610f03565b5b9050919050565b6060600080546104ec90612a27565b80601f016020809104026020016040519081016040528092919081815260200182805461051890612a27565b80156105655780601f1061053a57610100808354040283529160200191610565565b820191906000526020600020905b81548152906001019060200180831161054857829003601f168201915b5050505050905090565b600061057a82610f6d565b6105b9576040517f08c379a00000000000000000000000000000000000000000000000000000000081526004016105b090612727565b60405180910390fd5b6004600083815260200190815260200160002060009054906101000a900473ffffffffffffffffffffffffffffffffffffffff169050919050565b60006105ff8261078c565b90508073ffffffffffffffffffffffffffffffffffffffff168373ffffffffffffffffffffffffffffffffffffffff161415610670576040517f08c379a000000000000000000000000000000000000000000000000000000000815260040161066790612787565b60405180910390fd5b8073ffffffffffffffffffffffffffffffffffffffff1661068f610fd9565b73ffffffffffffffffffffffffffffffffffffffff1614806106be57506106bd816106b8610fd9565b610e49565b5b6106fd576040517f08c379a00000000000000000000000000000000000000000000000000000000081526004016106f490612687565b60405180910390fd5b6107078383610fe1565b505050565b61071d610717610fd9565b8261109a565b61075c576040517f08c379a0000000000000000000000000000000000000000000000000000000008152600401610753906127a7565b60405180910390fd5b610767838383611178565b505050565b61078783838360405180602001604052806000815250610d40565b505050565b6000806002600084815260200190815260200160002060009054906101000a900473ffffffffffffffffffffffffffffffffffffffff169050600073ffffffffffffffffffffffffffffffffffffffff168173ffffffffffffffffffffffffffffffffffffffff161415610835576040517f08c379a000000000000000000000000000000000000000000000000000000000815260040161082c906126c7565b60405180910390fd5b80915050919050565b60008073ffffffffffffffffffffffffffffffffffffffff168273ffffffffffffffffffffffffffffffffffffffff1614156108af576040517f08c379a00000000000000000000000000000000000000000000000000000000081526004016108a6906126a7565b60405180910390fd5b600360008373ffffffffffffffffffffffffffffffffffffffff1673ffffffffffffffffffffffffffffffffffffffff168152602001908152602001600020549050919050565b60065481565b60606001805461090b90612a27565b80601f016020809104026020016040519081016040528092919081815260200182805461093790612a27565b80156109845780601f1061095957610100808354040283529160200191610984565b820191906000526020600020905b81548152906001019060200180831161096757829003601f168201915b5050505050905090565b600760009054906101000a900473ffffffffffffffffffffffffffffffffffffffff1673ffffffffffffffffffffffffffffffffffffffff163373ffffffffffffffffffffffffffffffffffffffff1614610a1e576040517f08c379a0000000000000000000000000000000000000000000000000000000008152600401610a15906125c7565b60405180910390fd5b662386f26fc100003414610a67576040517f08c379a0000000000000000000000000000000000000000000000000000000008152600401610a5e906126e7565b60405180910390fd5b610a73836006546113d4565b60006040518060a0016040528060065481526020018481526020018381526020014281526020018573ffffffffffffffffffffffffffffffffffffffff16815250905080600860008673ffffffffffffffffffffffffffffffffffffffff1673ffffffffffffffffffffffffffffffffffffffff16815260200190815260200160002060006006548152602001908152602001600020600082015181600001556020820151816001019080519060200190610b2f9291906119ea565b506040820151816002019080519060200190610b4c9291906119ea565b506060820151816003015560808201518160040160006101000a81548173ffffffffffffffffffffffffffffffffffffffff021916908373ffffffffffffffffffffffffffffffffffffffff16021790555090505060066000815480929190610bb490612a59565b919050555050505050565b610bc7610fd9565b73ffffffffffffffffffffffffffffffffffffffff168273ffffffffffffffffffffffffffffffffffffffff161415610c35576040517f08c379a0000000000000000000000000000000000000000000000000000000008152600401610c2c90612647565b60405180910390fd5b8060056000610c42610fd9565b73ffffffffffffffffffffffffffffffffffffffff1673ffffffffffffffffffffffffffffffffffffffff16815260200190815260200160002060008473ffffffffffffffffffffffffffffffffffffffff1673ffffffffffffffffffffffffffffffffffffffff16815260200190815260200160002060006101000a81548160ff0219169083151502179055508173ffffffffffffffffffffffffffffffffffffffff16610cef610fd9565b73ffffffffffffffffffffffffffffffffffffffff167f17307eab39ab6107e8899845ad3d59bd9653f200f220920489ca2b5937696c3183604051610d34919061258a565b60405180910390a35050565b610d51610d4b610fd9565b8361109a565b610d90576040517f08c379a0000000000000000000000000000000000000000000000000000000008152600401610d87906127a7565b60405180910390fd5b610d9c848484846113f2565b50505050565b6060610dad82610f6d565b610dec576040517f08c379a0000000000000000000000000000000000000000000000000000000008152600401610de390612767565b60405180910390fd5b6000610df661144e565b90506000815111610e165760405180602001604052806000815250610e41565b80610e2084611465565b604051602001610e319291906124ff565b6040516020818303038152906040525b915050919050565b6000600560008473ffffffffffffffffffffffffffffffffffffffff1673ffffffffffffffffffffffffffffffffffffffff16815260200190815260200160002060008373ffffffffffffffffffffffffffffffffffffffff1673ffffffffffffffffffffffffffffffffffffffff16815260200190815260200160002060009054906101000a900460ff16905092915050565b600760009054906101000a900473ffffffffffffffffffffffffffffffffffffffff1681565b60007f01ffc9a7000000000000000000000000000000000000000000000000000000007bffffffffffffffffffffffffffffffffffffffffffffffffffffffff1916827bffffffffffffffffffffffffffffffffffffffffffffffffffffffff1916149050919050565b60008073ffffffffffffffffffffffffffffffffffffffff166002600084815260200190815260200160002060009054906101000a900473ffffffffffffffffffffffffffffffffffffffff1673ffffffffffffffffffffffffffffffffffffffff1614159050919050565b600033905090565b816004600083815260200190815260200160002060006101000a81548173ffffffffffffffffffffffffffffffffffffffff021916908373ffffffffffffffffffffffffffffffffffffffff160217905550808273ffffffffffffffffffffffffffffffffffffffff166110548361078c565b73ffffffffffffffffffffffffffffffffffffffff167f8c5be1e5ebec7d5bd14f71427d1e84f3dd0314c0f7b2291e5b200ac8c7c3b92560405160405180910390a45050565b60006110a582610f6d565b6110e4576040517f08c379a00000000000000000000000000000000000000000000000000000000081526004016110db90612667565b60405180910390fd5b60006110ef8361078c565b90508073ffffffffffffffffffffffffffffffffffffffff168473ffffffffffffffffffffffffffffffffffffffff16148061115e57508373ffffffffffffffffffffffffffffffffffffffff166111468461056f565b73ffffffffffffffffffffffffffffffffffffffff16145b8061116f575061116e8185610e49565b5b91505092915050565b8273ffffffffffffffffffffffffffffffffffffffff166111988261078c565b73ffffffffffffffffffffffffffffffffffffffff16146111ee576040517f08c379a00000000000000000000000000000000000000000000000000000000081526004016111e590612747565b60405180910390fd5b600073ffffffffffffffffffffffffffffffffffffffff168273ffffffffffffffffffffffffffffffffffffffff16141561125e576040517f08c379a000000000000000000000000000000000000000000000000000000000815260040161125590612627565b60405180910390fd5b611269838383611612565b611274600082610fe1565b6001600360008573ffffffffffffffffffffffffffffffffffffffff1673ffffffffffffffffffffffffffffffffffffffff16815260200190815260200160002060008282546112c4919061293d565b925050819055506001600360008473ffffffffffffffffffffffffffffffffffffffff1673ffffffffffffffffffffffffffffffffffffffff168152602001908152602001600020600082825461131b91906128b6565b92505081905550816002600083815260200190815260200160002060006101000a81548173ffffffffffffffffffffffffffffffffffffffff021916908373ffffffffffffffffffffffffffffffffffffffff160217905550808273ffffffffffffffffffffffffffffffffffffffff168473ffffffffffffffffffffffffffffffffffffffff167fddf252ad1be2c89b69c2b068fc378daa952ba7f163c4a11628f55a4df523b3ef60405160405180910390a4505050565b6113ee828260405180602001604052806000815250611617565b5050565b6113fd848484611178565b61140984848484611672565b611448576040517f08c379a000000000000000000000000000000000000000000000000000000000815260040161143f906125e7565b60405180910390fd5b50505050565b606060405180602001604052806000815250905090565b606060008214156114ad576040518060400160405280600181526020017f3000000000000000000000000000000000000000000000000000000000000000815250905061160d565b600082905060005b600082146114df5780806114c890612a59565b915050600a826114d8919061290c565b91506114b5565b60008167ffffffffffffffff811115611521577f4e487b7100000000000000000000000000000000000000000000000000000000600052604160045260246000fd5b6040519080825280601f01601f1916602001820160405280156115535781602001600182028036833780820191505090505b5090505b600085146116065760018261156c919061293d565b9150600a8561157b9190612aa2565b603061158791906128b6565b60f81b8183815181106115c3577f4e487b7100000000000000000000000000000000000000000000000000000000600052603260045260246000fd5b60200101907effffffffffffffffffffffffffffffffffffffffffffffffffffffffffffff1916908160001a905350600a856115ff919061290c565b9450611557565b8093505050505b919050565b505050565b6116218383611809565b61162e6000848484611672565b61166d576040517f08c379a0000000000000000000000000000000000000000000000000000000008152600401611664906125e7565b60405180910390fd5b505050565b60006116938473ffffffffffffffffffffffffffffffffffffffff166119d7565b156117fc578373ffffffffffffffffffffffffffffffffffffffff1663150b7a026116bc610fd9565b8786866040518563ffffffff1660e01b81526004016116de949392919061253e565b602060405180830381600087803b1580156116f857600080fd5b505af192505050801561172957506040513d601f19601f820116820180604052508101906117269190611e15565b60015b6117ac573d8060008114611759576040519150601f19603f3d011682016040523d82523d6000602084013e61175e565b606091505b506000815114156117a4576040517f08c379a000000000000000000000000000000000000000000000000000000000815260040161179b906125e7565b60405180910390fd5b805181602001fd5b63150b7a0260e01b7bffffffffffffffffffffffffffffffffffffffffffffffffffffffff1916817bffffffffffffffffffffffffffffffffffffffffffffffffffffffff191614915050611801565b600190505b949350505050565b600073ffffffffffffffffffffffffffffffffffffffff168273ffffffffffffffffffffffffffffffffffffffff161415611879576040517f08c379a000000000000000000000000000000000000000000000000000000000815260040161187090612707565b60405180910390fd5b61188281610f6d565b156118c2576040517f08c379a00000000000000000000000000000000000000000000000000000000081526004016118b990612607565b60405180910390fd5b6118ce60008383611612565b6001600360008473ffffffffffffffffffffffffffffffffffffffff1673ffffffffffffffffffffffffffffffffffffffff168152602001908152602001600020600082825461191e91906128b6565b92505081905550816002600083815260200190815260200160002060006101000a81548173ffffffffffffffffffffffffffffffffffffffff021916908373ffffffffffffffffffffffffffffffffffffffff160217905550808273ffffffffffffffffffffffffffffffffffffffff16600073ffffffffffffffffffffffffffffffffffffffff167fddf252ad1be2c89b69c2b068fc378daa952ba7f163c4a11628f55a4df523b3ef60405160405180910390a45050565b600080823b905060008111915050919050565b8280546119f690612a27565b90600052602060002090601f016020900481019282611a185760008555611a5f565b82601f10611a3157805160ff1916838001178555611a5f565b82800160010185558215611a5f579182015b82811115611a5e578251825591602001919060010190611a43565b5b509050611a6c9190611a70565b5090565b5b80821115611a89576000816000905550600101611a71565b5090565b6000611aa0611a9b84612813565b6127e2565b905082815260208101848484011115611ab857600080fd5b611ac38482856129e5565b509392505050565b6000611ade611ad984612843565b6127e2565b905082815260208101848484011115611af657600080fd5b611b018482856129e5565b509392505050565b600081359050611b1881612ba0565b92915050565b600081359050611b2d81612bb7565b92915050565b600081359050611b4281612bce565b92915050565b600081519050611b5781612bce565b92915050565b600082601f830112611b6e57600080fd5b8135611b7e848260208601611a8d565b91505092915050565b600082601f830112611b9857600080fd5b8135611ba8848260208601611acb565b91505092915050565b600081359050611bc081612be5565b92915050565b600060208284031215611bd857600080fd5b6000611be684828501611b09565b91505092915050565b60008060408385031215611c0257600080fd5b6000611c1085828601611b09565b9250506020611c2185828601611b09565b9150509250929050565b600080600060608486031215611c4057600080fd5b6000611c4e86828701611b09565b9350506020611c5f86828701611b09565b9250506040611c7086828701611bb1565b9150509250925092565b60008060008060808587031215611c9057600080fd5b6000611c9e87828801611b09565b9450506020611caf87828801611b09565b9350506040611cc087828801611bb1565b925050606085013567ffffffffffffffff811115611cdd57600080fd5b611ce987828801611b5d565b91505092959194509250565b60008060408385031215611d0857600080fd5b6000611d1685828601611b09565b9250506020611d2785828601611b1e565b9150509250929050565b600080600060608486031215611d4657600080fd5b6000611d5486828701611b09565b935050602084013567ffffffffffffffff811115611d7157600080fd5b611d7d86828701611b87565b925050604084013567ffffffffffffffff811115611d9a57600080fd5b611da686828701611b87565b9150509250925092565b60008060408385031215611dc357600080fd5b6000611dd185828601611b09565b9250506020611de285828601611bb1565b9150509250929050565b600060208284031215611dfe57600080fd5b6000611e0c84828501611b33565b91505092915050565b600060208284031215611e2757600080fd5b6000611e3584828501611b48565b91505092915050565b600060208284031215611e5057600080fd5b6000611e5e84828501611bb1565b91505092915050565b611e7081612971565b82525050565b611e7f81612983565b82525050565b6000611e9082612873565b611e9a8185612889565b9350611eaa8185602086016129f4565b611eb381612b8f565b840191505092915050565b6000611ec98261287e565b611ed3818561289a565b9350611ee38185602086016129f4565b611eec81612b8f565b840191505092915050565b6000611f028261287e565b611f0c81856128ab565b9350611f1c8185602086016129f4565b80840191505092915050565b6000611f35600d8361289a565b91507f6d7573742062652061646d696e000000000000000000000000000000000000006000830152602082019050919050565b6000611f7560328361289a565b91507f4552433732313a207472616e7366657220746f206e6f6e20455243373231526560008301527f63656976657220696d706c656d656e74657200000000000000000000000000006020830152604082019050919050565b6000611fdb601c8361289a565b91507f4552433732313a20746f6b656e20616c7265616479206d696e746564000000006000830152602082019050919050565b600061201b60248361289a565b91507f4552433732313a207472616e7366657220746f20746865207a65726f2061646460008301527f72657373000000000000000000000000000000000000000000000000000000006020830152604082019050919050565b600061208160198361289a565b91507f4552433732313a20617070726f766520746f2063616c6c6572000000000000006000830152602082019050919050565b60006120c1602c8361289a565b91507f4552433732313a206f70657261746f7220717565727920666f72206e6f6e657860008301527f697374656e7420746f6b656e00000000000000000000000000000000000000006020830152604082019050919050565b600061212760388361289a565b91507f4552433732313a20617070726f76652063616c6c6572206973206e6f74206f7760008301527f6e6572206e6f7220617070726f76656420666f7220616c6c00000000000000006020830152604082019050919050565b600061218d602a8361289a565b91507f4552433732313a2062616c616e636520717565727920666f7220746865207a6560008301527f726f2061646472657373000000000000000000000000000000000000000000006020830152604082019050919050565b60006121f360298361289a565b91507f4552433732313a206f776e657220717565727920666f72206e6f6e657869737460008301527f656e7420746f6b656e00000000000000000000000000000000000000000000006020830152604082019050919050565b600061225960218361289a565b91507f56616c7565206d75737420626520657175616c20746f20302e3031206574686560008301527f72000000000000000000000000000000000000000000000000000000000000006020830152604082019050919050565b60006122bf60208361289a565b91507f4552433732313a206d696e7420746f20746865207a65726f20616464726573736000830152602082019050919050565b60006122ff602c8361289a565b91507f4552433732313a20617070726f76656420717565727920666f72206e6f6e657860008301527f697374656e7420746f6b656e00000000000000000000000000000000000000006020830152604082019050919050565b600061236560298361289a565b91507f4552433732313a207472616e73666572206f6620746f6b656e2074686174206960008301527f73206e6f74206f776e00000000000000000000000000000000000000000000006020830152604082019050919050565b60006123cb602f8361289a565b91507f4552433732314d657461646174613a2055524920717565727920666f72206e6f60008301527f6e6578697374656e7420746f6b656e00000000000000000000000000000000006020830152604082019050919050565b600061243160218361289a565b91507f4552433732313a20617070726f76616c20746f2063757272656e74206f776e6560008301527f72000000000000000000000000000000000000000000000000000000000000006020830152604082019050919050565b600061249760318361289a565b91507f4552433732313a207472616e736665722063616c6c6572206973206e6f74206f60008301527f776e6572206e6f7220617070726f7665640000000000000000000000000000006020830152604082019050919050565b6124f9816129db565b82525050565b600061250b8285611ef7565b91506125178284611ef7565b91508190509392505050565b60006020820190506125386000830184611e67565b92915050565b60006080820190506125536000830187611e67565b6125606020830186611e67565b61256d60408301856124f0565b818103606083015261257f8184611e85565b905095945050505050565b600060208201905061259f6000830184611e76565b92915050565b600060208201905081810360008301526125bf8184611ebe565b905092915050565b600060208201905081810360008301526125e081611f28565b9050919050565b6000602082019050818103600083015261260081611f68565b9050919050565b6000602082019050818103600083015261262081611fce565b9050919050565b600060208201905081810360008301526126408161200e565b9050919050565b6000602082019050818103600083015261266081612074565b9050919050565b60006020820190508181036000830152612680816120b4565b9050919050565b600060208201905081810360008301526126a08161211a565b9050919050565b600060208201905081810360008301526126c081612180565b9050919050565b600060208201905081810360008301526126e0816121e6565b9050919050565b600060208201905081810360008301526127008161224c565b9050919050565b60006020820190508181036000830152612720816122b2565b9050919050565b60006020820190508181036000830152612740816122f2565b9050919050565b6000602082019050818103600083015261276081612358565b9050919050565b60006020820190508181036000830152612780816123be565b9050919050565b600060208201905081810360008301526127a081612424565b9050919050565b600060208201905081810360008301526127c08161248a565b9050919050565b60006020820190506127dc60008301846124f0565b92915050565b6000604051905081810181811067ffffffffffffffff8211171561280957612808612b60565b5b8060405250919050565b600067ffffffffffffffff82111561282e5761282d612b60565b5b601f19601f8301169050602081019050919050565b600067ffffffffffffffff82111561285e5761285d612b60565b5b601f19601f8301169050602081019050919050565b600081519050919050565b600081519050919050565b600082825260208201905092915050565b600082825260208201905092915050565b600081905092915050565b60006128c1826129db565b91506128cc836129db565b9250827fffffffffffffffffffffffffffffffffffffffffffffffffffffffffffffffff0382111561290157612900612ad3565b5b828201905092915050565b6000612917826129db565b9150612922836129db565b92508261293257612931612b02565b5b828204905092915050565b6000612948826129db565b9150612953836129db565b92508282101561296657612965612ad3565b5b828203905092915050565b600061297c826129bb565b9050919050565b60008115159050919050565b60007fffffffff0000000000000000000000000000000000000000000000000000000082169050919050565b600073ffffffffffffffffffffffffffffffffffffffff82169050919050565b6000819050919050565b82818337600083830152505050565b60005b83811015612a125780820151818401526020810190506129f7565b83811115612a21576000848401525b50505050565b60006002820490506001821680612a3f57607f821691505b60208210811415612a5357612a52612b31565b5b50919050565b6000612a64826129db565b91507fffffffffffffffffffffffffffffffffffffffffffffffffffffffffffffffff821415612a9757612a96612ad3565b5b600182019050919050565b6000612aad826129db565b9150612ab8836129db565b925082612ac857612ac7612b02565b5b828206905092915050565b7f4e487b7100000000000000000000000000000000000000000000000000000000600052601160045260246000fd5b7f4e487b7100000000000000000000000000000000000000000000000000000000600052601260045260246000fd5b7f4e487b7100000000000000000000000000000000000000000000000000000000600052602260045260246000fd5b7f4e487b7100000000000000000000000000000000000000000000000000000000600052604160045260246000fd5b6000601f19601f8301169050919050565b612ba981612971565b8114612bb457600080fd5b50565b612bc081612983565b8114612bcb57600080fd5b50565b612bd78161298f565b8114612be257600080fd5b50565b612bee816129db565b8114612bf957600080fd5b5056fea26469706673582212207775d6a7cd49908cec990ccfd922553cf79f5a99aa72d36887688681d983056964736f6c63430008000033",
  "immutableReferences": {},
  "source": "// SPDX-License-Identifier: MIT\npragma solidity >=0.7.0 <0.9.0;\n\nimport \"../node_modules/@openzeppelin/contracts/token/ERC721/ERC721.sol\";\n\ncontract NFT is ERC721 {\n    uint256 public nextTokenId;\n    address public admin;\n\n    struct Nft {\n        uint256 id;\n        string name;\n        string imageUrl;\n        uint256 date;\n        address owner;\n    }\n\n    mapping(address => mapping(uint256 => Nft)) nfts;\n\n    constructor() ERC721(\"My Nft\", \"NFT\") {\n        admin = msg.sender;\n    }\n\n    function mint(\n        address to,\n        string memory name,\n        string memory imageUrl\n    ) external payable {\n        require(msg.sender == admin, \"must be admin\");\n        require(msg.value == 0.01 ether, \"Value must be equal to 0.01 ether\");\n        _safeMint(to, nextTokenId);\n\n        Nft memory n = Nft({\n            id: nextTokenId,\n            name: name,\n            imageUrl: imageUrl,\n            date: block.timestamp,\n            owner: to\n        });\n\n        nfts[to][nextTokenId] = n;\n\n        nextTokenId++;\n    }\n\n    function _baseURI() internal pure override returns (string memory) {\n        return \"\";\n    }\n}\n",
  "sourcePath": "/Volumes/APPLE HDD/reactprojects/nft3/contracts/NFT.sol",
  "compiler": {
    "name": "solc",
    "version": "0.8.0+commit.c7dfd78e.Emscripten.clang"
  },
  "schemaVersion": "3.4.3",
  "updatedAt": "2021-09-05T20:03:51.797Z",
  "networkType": "ethereum",
  "devdoc": {
    "kind": "dev",
    "methods": {
      "approve(address,uint256)": {
        "details": "See {IERC721-approve}."
      },
      "balanceOf(address)": {
        "details": "See {IERC721-balanceOf}."
      },
      "getApproved(uint256)": {
        "details": "See {IERC721-getApproved}."
      },
      "isApprovedForAll(address,address)": {
        "details": "See {IERC721-isApprovedForAll}."
      },
      "name()": {
        "details": "See {IERC721Metadata-name}."
      },
      "ownerOf(uint256)": {
        "details": "See {IERC721-ownerOf}."
      },
      "safeTransferFrom(address,address,uint256)": {
        "details": "See {IERC721-safeTransferFrom}."
      },
      "safeTransferFrom(address,address,uint256,bytes)": {
        "details": "See {IERC721-safeTransferFrom}."
      },
      "setApprovalForAll(address,bool)": {
        "details": "See {IERC721-setApprovalForAll}."
      },
      "supportsInterface(bytes4)": {
        "details": "See {IERC165-supportsInterface}."
      },
      "symbol()": {
        "details": "See {IERC721Metadata-symbol}."
      },
      "tokenURI(uint256)": {
        "details": "See {IERC721Metadata-tokenURI}."
      },
      "transferFrom(address,address,uint256)": {
        "details": "See {IERC721-transferFrom}."
      }
    },
    "version": 1
  },
  "userdoc": {
    "kind": "user",
    "methods": {},
    "version": 1
  }
}